:020000040800F2
:10000000D88C00209D010008993E0008DD380008CA
:10001000953E0008CD020008154A000800000000C7
:10002000000000000000000000000000D13F0008B8
:10003000BD04000800000000113F0008094000084E
:10004000B7010008B7010008B7010008B7010008B0
:10005000B7010008B7010008B7010008B7010008A0
:10006000B7010008B7010008B7010008B701000890
:10007000B7010008B7010008B7010008B701000880
:10008000B7010008B7010008B7010008B701000870
:10009000D1020008B7010008B7010008B701000845
:1000A000B7010008B7010008B7010008B701000850
:1000B0001D410008B7010008B7010008B70100089A
:1000C000B7010008B7010008B7010008B701000830
:1000D000B7010008F9480008B7010008B701000897
:1000E000B7010008B7010008B7010008B701000810
:1000F000B7010008B7010008B7010008B701000800
:10010000B7010008B7010008B7010008B7010008EF
:10011000B7010008B7010008B70100082D41000829
:10012000B70100081903000829030008B7010008F7
:10013000B7010008B7010008B7010008B7010008BF
:10014000E1020008B7010008B7010008B701000884
:10015000B70100083903000849030008B701000887
:10016000B7010008B7010008B7010008B70100088F
:10017000B7010008B7010008B7010008000000003F
:10018000B7010008B7010008DFF80CD000F08CF8C8
:10019000004800474D4F0008D88C00200648804793
:1001A00006480047FEE7FEE7FEE7FEE7FEE7FEE75C
:1001B000FEE7FEE7FEE7FEE70941000889010008C7
:1001C0002DE9F05F0546002092469B46884606468C
:1001D000814640241BE0284641464746224600F01F
:1001E00053F853465A46C01A914110D31146184647
:1001F000224600F03AF82D1A67EB01084F462246D6
:100200000120002100F031F817EB00094E41201EBB
:10021000A4F10104DFDC484631462A464346BDE8E6
:10022000F09F40EA01039B0703D009E008C9121FB1
:1002300008C0042AFAD203E011F8013B00F8013BA0
:10024000521EF9D27047D2B201E000F8012B491ECC
:10025000FBD270470022F6E710B513460A46044663
:100260001946FFF7F0FF204610BD202A04DB203A94
:1002700000FA02F1002070479140C2F1200320FAF9
:1002800003F3194390407047202A04DB203A21FAF7
:1002900002F00021704721FA02F3D040C2F120029F
:1002A0009140084319467047064C074D06E0E06848
:1002B00040F0010394E8070098471034AC42F6D3AD
:1002C000FFF766FF2871000848710008FFE7FEE7A6
:1002D00080B540F20810C2F2000000F0FFFA80BDC5
:1002E00080B540F23010C2F2000000F0F7FA80BD95
:1002F00080B582B00190FFE7012004F05FFE00901E
:10030000FAE7000080B582B00190FFE7012004F019
:1003100055FE0090FAE7000080B540F21820C2F2C6
:10032000000001F011F880BD80B540F25810C2F213
:10033000000001F009F880BD80B540F27820C2F2DB
:10034000000001F001F880BD80B540F2B810C2F2A3
:10035000000000F0F9FF80BD82B0019001980078A4
:1003600010384AF6AB21CAF6AA21A0FB01010909FF
:100370000091009946F6E862C0F60002515C019ACD
:10038000D1650099042907D3FFE701980168042289
:1003900062F30901816506E00198016840F2FF32CD
:1003A00091438165FFE70198806D02B070470000BE
:1003B00086B0059000208DF813000598806A0390A0
:1003C00005988069002823D1FFE70398032802904D
:1003D0001CD80299DFE801F0020E0219059890F886
:1003E0002F00C007002804D0FFE701208DF813007C
:1003F000FFE70CE00598C06AB0F1C07F04D1FFE7C9
:1004000001208DF81300FFE701E000E0FFE747E07F
:1004100005988069B0F5005F26D1FFE703980328AF
:1004200001901FD80199DFE801F0020602120120B5
:100430008DF8130017E0059890F82F00C0070028EA
:1004400004D0FFE701208DF81300FFE70BE00598CB
:10045000C06AB0F1C07F04D1FFE701208DF813001E
:10046000FFE700E0FFE71AE003980328009004D3B9
:10047000FFE70098032804D00FE001208DF8130057
:100480000CE0059890F82F00C007002804D0FFE783
:1004900001208DF81300FFE700E0FFE7FFE7FFE72B
:1004A0009DF8130006B0704780B582B00190FFE759
:1004B000012004F083FD0090FAE70000704700007F
:1004C00081B0EFF3108072B60090FFE7FEE7000006
:1004D00084B002900191029890F820008DF80300FA
:1004E0009DF80300012805D0FFE79DF803000228CE
:1004F0000AD1FFE70198029909684A6910434861E7
:1005000000208DF80F0008E00298416A41F4802134
:10051000416201208DF80F00FFE79DF80F0004B045
:100520007047000086B00490039104980068019021
:10053000049890F820008DF803009DF8030001282E
:1005400006D0FFE79DF80300022840F0B880FFE7DF
:1005500046F20040C4F2000001900198D0F8001269
:1005600041F00101C0F800120198D0F8001221F406
:100570007C51C0F800120398406A0199D1F800221A
:1005800042EA0020C1F800020398406900F01F0011
:10059000012101FA00F0029002980199D1F81C2281
:1005A00022EA0000C1F81C020398C06900281FD18C
:1005B000FFE702980199D1F80C2222EA0000C1F865
:1005C0000C0203988188C268406941EA0241019A9D
:1005D00002EBC000C0F840120398018882684069AD
:1005E00041EA0241019A02EBC000C0F84412FFE761
:1005F0000398C06901281ED1FFE702980199D1F83C
:100600000C221043C1F80C020398818802684069EB
:1006100041EA0241019A02EBC000C0F8401203987F
:1006200081898268406941EA0241019A02EBC00077
:10063000C0F84412FFE703988069002809D1FFE75A
:1006400002980199D1F8042222EA0000C1F80402BC
:1006500007E002980199D1F804221043C1F804027E
:10066000FFE703980069002809D1FFE70298019984
:10067000D1F8142222EA0000C1F8140207E002981F
:100680000199D1F814221043C1F81402FFE703982E
:10069000006A012808D1FFE702980199D1F81C22CD
:1006A0001043C1F81C02FFE70198D0F8001221F0B6
:1006B0000101C0F8001200208DF8170008E004982E
:1006C000416A41F48021416201208DF81700FFE763
:1006D0009DF8170006B0704781B0009001B07047D8
:1006E00086B00490039102920193049890F8200040
:1006F0008DF803009DF80300012806D0FFE79DF860
:100700000300022840F0DC80FFE70398002811D1A5
:10071000FFE704980068C0688007002809D1FFE758
:100720000498416A41F40011416201208DF81700DC
:10073000CFE010E00498006800698007002809D124
:10074000FFE70498416A41F40011416201208DF8ED
:100750001700BEE0FFE704980068039900EB011062
:10076000D0F8B00100F00400029988600298806817
:1007700000280BD1FFE704980068039900EB0110F3
:10078000D0F8B001400D029908600AE004980068B2
:10079000039900EB0110D0F8B001C008029948603D
:1007A000FFE704980068039900EB0110D0F8B0014E
:1007B00000F002000299C86004980068039900EBF9
:1007C0000110D0F8B40100F00F00029908610498FC
:1007D0000068039900EB0110D0F8B40180B2000A60
:1007E0000299886104980068039900EB0110D0F821
:1007F000B401000C0299486104980068039900EB69
:100800000110D0F8B80101990870049800680399A4
:1008100000EB0110D0F8B801000A01994870049863
:100820000068039900EB0110D0F8B801000C0199A1
:10083000887004980068039900EB0110D0F8B801A3
:10084000000E0199C87004980068039900EB01102C
:10085000D0F8BC010199087104980068039900EB75
:100860000110D0F8BC01000A019948710498006891
:10087000039900EB0110D0F8BC01000C01998871BC
:1008800004980068039900EB0110D0F8BC01000E39
:100890000199C8710398002807D1FFE70498006800
:1008A000C16841F02001C16006E004980068016958
:1008B00041F020010161FFE700208DF8170008E0FA
:1008C0000498416A41F48021416201208DF81700AB
:1008D000FFE79DF8170006B07047000080B58AB0AA
:1008E00009900020089009980068406907900998CD
:1008F000006840680690099800688068059009982B
:100900000068C0680490099800680069039009981D
:100910000068806902909DF81C00C007002800F064
:100920009780FFE79DF81400C00700282BD0FFE751
:1009300009980068012181609DF814008007002853
:1009400004D5FFE7099800F0E7FC1BE09DF81400D0
:100950004007002805D5FFE7089840F4006008909C
:100960000FE09DF814000007002805D5FFE7089860
:1009700040F48050089003E0099800F0C9FCFFE7BC
:10098000FFE7FFE7FFE79DF81500C00700282CD020
:10099000FFE7099800684FF4807181609DF81500A9
:1009A0008007002804D5FFE7099800F0BDFC1BE094
:1009B0009DF815004007002805D5FFE7089840F48A
:1009C000005008900FE09DF815000007002805D59D
:1009D000FFE7089840F48040089003E0099800F091
:1009E0009FFCFFE7FFE7FFE7FFE79DF81600C00762
:1009F00000282CD0FFE7099800684FF4803181600F
:100A00009DF816008007002804D5FFE7099800F03C
:100A100093FC1BE09DF816004007002805D5FFE772
:100A2000089840F4004008900FE09DF81600000779
:100A3000002805D5FFE7089840F48030089003E0CF
:100A4000099800F075FCFFE7FFE7FFE7FFE7FFE726
:100A50009DF81C000007002810D5FFE79DF8100046
:100A6000C006002809D5FFE7089840F400700890F8
:100A7000099800681021C160FFE7FFE79DF81C009E
:100A8000400700280FD5FFE79DF810000007002859
:100A900008D5FFE7099800680821C160099800F0AF
:100AA000D7FAFFE7FFE79DF81C00800700280CD568
:100AB000FFE709980068C0688007002804D0FFE7B6
:100AC000099800F0C9FAFFE7FFE79DF81C0040060F
:100AD000002810D5FFE79DF80C00C006002809D5B6
:100AE000FFE7089840F4806008900998006810219A
:100AF0000161FFE7FFE79DF81C00800600280FD585
:100B0000FFE79DF80C000007002808D5FFE70998CB
:100B1000006808210161099800F0A8FBFFE7FFE7E2
:100B20009DF81C00C00600280CD5FFE70998006856
:100B300000698007002804D0FFE7099800F09AFBBD
:100B4000FFE7FFE79DF81E00800700280FD5FFE7AD
:100B50009DF81800C006002808D5FFE7099800682E
:100B600010214160099800F089FBFFE7FFE79DF83D
:100B70001E00C00700280FD0FFE79DF818000007EF
:100B8000002808D5FFE70998006808214160099806
:100B900000F0D6FBFFE7FFE79DF81D0000060028E8
:100BA00040F18F80FFE79DF818004007002840F1D2
:100BB0008380FFE79DF81D00C00700280BD0FFE7EA
:100BC0009DF80800C007002805D0FFE7089840F00E
:100BD00001000890FFE79DF81D00800700280BD555
:100BE000FFE79DF808008007002805D5FFE7089873
:100BF00040F002000890FFE79DF81D004007002824
:100C00000BD5FFE79DF808004007002805D5FFE752
:100C1000089840F004000890FFE79DF81D000007C9
:100C2000002848D5FFE79DF8080010F0700F42D06B
:100C3000FFE7029800F0700001461028019114D0DF
:100C4000FFE70198202815D0FFE70198302816D03B
:100C5000FFE70198402817D0FFE70198502818D0E7
:100C6000FFE70198602819D01DE0089840F00800BF
:100C7000089019E0089840F01000089014E00898D7
:100C800040F0200008900FE0089840F040000890E5
:100C90000AE0089840F08000089005E0089840F4C9
:100CA0008070089000E0FFE709980068816921F0F2
:100CB00070018161FFE7FFE7099800680421416046
:100CC000FFE70898002809D0FFE7089809994A6AC1
:100CD000104348620998FFF7FFFCFFE70AB080BDA8
:100CE00080B584B002900298002804D1FFE701206B
:100CF0008DF80F00E2E0029890F82000002804D15F
:100D0000FFE7029800F0DEF8FFE70298006801684C
:100D100041F00101016000F057FF0190FFE70298E8
:100D200000684068C007002815D1FFE700F04CFFBD
:100D30000199401A0B280DD3FFE70298416A41F44C
:100D4000003141620298052180F8201001208DF8C1
:100D50000F00B3E0E3E702980068016821F00201A8
:100D6000016000F031FF0190FFE7029800684068E1
:100D70008007002815D5FFE700F026FF0199401AEB
:100D80000B280DD3FFE70298416A41F4003141621C
:100D90000298052180F8201001208DF80F008DE0C9
:100DA000E3E70298007E012807D1FFE70298006878
:100DB000016841F08001016006E002980068016866
:100DC00021F080010160FFE70298407E012807D1F1
:100DD000FFE702980068016841F04001016006E009
:100DE00002980068016821F040010160FFE7029865
:100DF000807E012807D1FFE702980068016841F072
:100E00002001016006E002980068016821F02001DD
:100E10000160FFE70298C07E012807D1FFE7029832
:100E20000068016821F01001016006E00298006886
:100E3000016841F010010160FFE70298007F01287E
:100E400007D1FFE702980068016841F008010160DE
:100E500006E002980068016821F008010160FFE7E0
:100E60000298407F012807D1FFE7029800680168D7
:100E700041F00401016006E002980068016821F079
:100E800004010160FFE70298016842688368D0F8B6
:100E90000CC043EA0C03D0F810C043EA0C034069CD
:100EA0001843013A1043C861029800214162029838
:100EB000012280F820208DF80F10FFE79DF80F0029
:100EC00004B080BD80B590B00F9000200E900D90C2
:100ED0000C900B900A900F98006846F20041C4F203
:100EE000000188424AD1FFE740F28000C2F20000D0
:100EF0000168013101600068012812D1FFE7FFE7B6
:100F00000020099043F64000C4F20200016841F05D
:100F100000710160006800F0007009900998FFE717
:100F2000FFE7FFE70020089043F63000C4F202001C
:100F3000016841F008010160006800F008000890B5
:100F40000898FFE703200A9002210B9100210C91E1
:100F50000D9009200E9040F60040C4F202000AAA4B
:100F60000491114600F04EFC142005210390049AD0
:100F700000F0F4FE039800F0E5FE66E00F980068CC
:100F800046F60001C4F2000188425DD1FFE7FFE7A9
:100F90000020079043F64000C4F20200016841F0CF
:100FA00080610160006800F0806007900798FFE7AB
:100FB00040F28000C2F20000016801310160006867
:100FC000012812D1FFE7FFE70020069043F640001A
:100FD000C4F20200016841F000710160006800F095
:100FE000007006900698FFE7FFE7FFE700200590F6
:100FF00043F63000C4F20200016841F002010160D2
:10100000006800F0020005900598FFE760200A9054
:1010100002200B9000200C9003210D9109210E91CC
:1010200040F20041C4F202010AAA029008461146A9
:1010300000F0E8FB402005210190029A00F08EFEAE
:10104000019800F07FFEFFE7FFE710B080BD0000D1
:1010500081B0009001B0704780B58CB00B900B98B8
:10106000002104AA02ABFFF73BFB0B99096846F28B
:101070000042C4F20002914275D1FFE70498A0F249
:101080000120032867D8FFE70498013840F27C016B
:10109000C2F200010870087800EB800040F22402E0
:1010A000C2F2000202EB800332F8200018819DF8A2
:1010B00008009DF8093043EA00200B7803EB830316
:1010C00022F823009DF80A009DF80B3043EA002027
:1010D0000B7803EB830302EB830358809DF80C002D
:1010E0009DF80D3043EA00200B7803EB830302EBFD
:1010F000830398809DF80E000B7803EB830302EBCB
:1011000083039871087800EB800002EB800332F8CB
:10111000200000EE100AB8EEC00A9FED511A80EED2
:10112000010A9FED501A20EE010A9FED4F2A30EE82
:10113000020A83ED030A087800EB800002EB8000CE
:10114000B0F9021000EE101AB8EEC00A20EE010A43
:1011500080ED040A06E041F2F060CFF6BF7003F0C4
:10116000BDFCFFE779E00B98006846F60001C4F289
:101170000001884270D1FFE70498B0F5837F0190A9
:1011800053D0FFE740F207100199814255D0FFE7A5
:101190000198B0F5887F51D0FFE740F21110019916
:1011A000814256D0FFE740F205200199814251D19A
:1011B000FFE740F29400C2F20000018801819DF82F
:1011C00008109DF8092042EA012101809DF80A10CB
:1011D0009DF80B2042EA012141809DF80C109DF8FA
:1011E0000D2042EA012181809DF80E108171018855
:1011F00000EE101AB8EEC00A9FED191A80EE010A2F
:101200009FED181A20EE010A9FED172A30EE020A10
:1012100080ED030AB0F9021000EE101AB8EEC00A11
:1012200020EE010A80ED040A15E040F21800C2F237
:101230000000BDF8081001800DE00CE040F28400D1
:10124000C2F200000299DDF80B20C0F80320016013
:1012500001E000E0FFE7FFE7FFE70CB080BD00BF63
:1012600000F8FF450000B443000034C381B0009093
:1012700001B0704781B0009001B0704781B000901C
:1012800001B0704780B584B00290029890F82000B9
:10129000012830D1FFE70298022180F8201002983F
:1012A0000068016821F00101016000F08DFC0190EF
:1012B000FFE7029800684068C007002815D0FFE7E4
:1012C00000F082FC0199401A0B280DD3FFE7029829
:1012D000416A41F4003141620298052180F82010F2
:1012E00001208DF80F000FE0E3E702980021416232
:1012F0008DF80F1008E00298416A41F40021416224
:1013000001208DF80F00FFE79DF80F0004B080BDAD
:1013100081B0009001B0704781B0009001B070477B
:1013200081B0009001B0704781B0009001B070476B
:1013300081B0009001B0704781B0009001B070475B
:1013400081B0009001B0704780B586B00590002054
:10135000039040F20400C2F20000006848F2B511A8
:10136000C1F64E31A0FB0101890A02910599896DF0
:1013700001910199096804910499059AD26DD140AF
:10138000090700291BD5FFE705980068006840079A
:10139000002813D5FFE705980068016821F00401D3
:1013A00001600598C06D082101FA00F0019988607C
:1013B0000598416D41F001014165FFE7FFE70498A1
:1013C0000599C96DC840C007002815D0FFE70598EA
:1013D00000684069000600280DD5FFE70598C06D3C
:1013E000012101FA00F0019988600598416D41F0F2
:1013F00002014165FFE7FFE704980599C96DC84000
:101400004007002815D5FFE70598006800688007A9
:1014100000280DD5FFE70598C06D042101FA00F002
:10142000019988600598416D41F004014165FFE72D
:10143000FFE704980599C96DC840C00600284BD540
:10144000FFE70598006800680007002843D5FFE71C
:101450000598C06D102101FA00F001998860059887
:1014600000680068400300281CD5FFE70598006865
:101470000068000300280AD4FFE70598006C0028E4
:1014800004D0FFE70598016C8847FFE709E005985D
:10149000806C002804D0FFE70598816C8847FFE73F
:1014A000FFE717E0059800680068C005002807D42A
:1014B000FFE705980068016821F008010160FFE777
:1014C0000598006C002804D0FFE70598016C884758
:1014D000FFE7FFE7FFE7FFE704980599C96DC840FC
:1014E0008006002840F19580FFE7059800680068B5
:1014F000C006002840F18C80FFE70598C06D2021D0
:1015000001FA00F001998860059890F835000528E7
:1015100038D1FFE705980068016821F016010160E5
:1015200005980068416921F0800141610598006CCF
:10153000002805D1FFE70598806C002807D0FFE759
:1015400005980068016821F008010160FFE705982F
:10155000C06D3F2101FA00F00199886005980121D2
:1015600080F83510FFE70598002180F83410FFE778
:101570000598006D002804D0FFE70598016D8847A5
:10158000FFE781E0059800680068400300281CD54B
:10159000FFE7059800680068000300280AD4FFE709
:1015A0000598406C002804D0FFE70598416C8847F7
:1015B000FFE709E00598C06B002804D0FFE7059815
:1015C000C16B8847FFE7FFE721E0059800680068E6
:1015D000C005002811D4FFE705980068016821F0D4
:1015E000100101600598012180F83510FFE705988A
:1015F000002180F83410FFE7FFE70598C06B002852
:1016000004D0FFE70598C16B8847FFE7FFE7FFE7D6
:10161000FFE70598406D002836D0FFE70598406D3C
:10162000C007002826D0FFE70598052180F835106F
:1016300005980068016821F001010160FFE7039847
:10164000013003900299884201D9FFE707E0FFE7E4
:10165000059800680068C0070028F0D1FFE70598EA
:10166000012180F83510FFE70598002180F834103B
:10167000FFE7FFE70598C06C002804D0FFE7059856
:10168000C16C8847FFE7FFE706B080BD80B586B034
:1016900004900020039000F097FA0290049800282C
:1016A00004D1FFE701208DF81700A7E00498406AF5
:1016B000002801D0FFE7FFE70498022180F83510E9
:1016C000FFE70498002180F83410FFE704980068D1
:1016D000016821F001010160FFE7049800680068DB
:1016E000C007002812D0FFE700F06EFA0299401AF6
:1016F00006280AD3FFE704982021416504980321B6
:1017000080F835108DF8171078E0E6E70498006847
:1017100000680390039848F23F01CFF2100108409F
:101720000390049841688268C368D0F810C01143E0
:10173000194341EA0C014269114382691143C269AC
:101740001143006A08430399084303900498406AD0
:10175000042808D1FFE70498C16A006B0843039985
:1017600008430390FFE70398049909680860049808
:10177000006840690390039820F0070003900498E4
:10178000406A0399084303900498406A04281CD1D6
:10179000FFE70498806A0399084303900498C06A9D
:1017A000002811D0FFE70498FEF702FE00280AD0B7
:1017B000FFE70498402141650498012180F8351025
:1017C0008DF817101AE0FFE7FFE7039804990968FE
:1017D00048610498FEF7C0FD01900498C06D3F2158
:1017E00001FA00F00199886004980021416504988D
:1017F000012280F835208DF81710FFE79DF81700BB
:1018000006B080BD8EB00D900C9100200A9009901A
:1018100008900B90FFE70B980F2800F2D281FFE7AA
:101820000B98012101FA00F00A900C9800680A99BF
:101830000840099009980A99884240F0BD81FFE765
:101840000C98406800F00300012807D0FFE70C98CF
:10185000406800F0030002282FD1FFE70D98806850
:1018600008900B984000032101FA00F0089921EA42
:10187000000008900C98C0680B99490088400899AE
:101880000843089008980D9988600D984068089062
:101890000B98012101FA00F0089921EA0000089054
:1018A0000C984068C0F300100B99884008990843D1
:1018B000089008980D994860FFE70C98406800F080
:1018C0000300032818D0FFE70D98C06808900B9814
:1018D0004000032101FA00F0089921EA0000089075
:1018E0000C9880680B994900884008990843089033
:1018F00008980D99C860FFE70C98406800F0030055
:10190000022826D1FFE70D980B996FF0030202EA37
:1019100051010844006A08900B9800F0070080000D
:101920000F2101FA00F0089921EA000008900C98B4
:1019300000690B9901F00701890088400899084364
:10194000089008980D990B9B02EA53021144086213
:10195000FFE70D98006808900B984000032101FAFA
:1019600000F0089921EA000008900C98406800F007
:1019700003000B994900884008990843089008988B
:101980000D9908600C9880798007002800F0138179
:10199000FFE7FFE70020079043F64400C4F202008F
:1019A000016841F480410160006800F480400790C4
:1019B0000798FFE70B9820F0030043F60801C4F2F4
:1019C0000101405808900B9800F0030080000F219F
:1019D00001FA00F0089921EA000008900D98002112
:1019E000C4F20201884203D1FFE7002006905EE0C6
:1019F0000D9840F20041C4F20201884203D1FFE792
:101A00000120059050E00D9840F60001C4F202015B
:101A1000884203D1FFE70220049042E00D9840F68F
:101A20000041C4F20201884203D1FFE70320039082
:101A300034E00D9841F20001C4F20201884203D162
:101A4000FFE70420029026E00D9841F20041C4F225
:101A50000201884203D1FFE70520019018E00D98AC
:101A600041F60001C4F20201884203D1FFE70620DB
:101A700000900AE00D9841F60041C4F202010822EC
:101A8000884208BF07220092FFE700980190FFE715
:101A900001980290FFE702980390FFE703980490F3
:101AA000FFE704980590FFE705980690FFE7069882
:101AB000C0B20B9901F003018900884008990843DE
:101AC000089008980B9921F0030143F60802C4F22C
:101AD0000102885043F60840C4F2010000680890F3
:101AE0000998089921EA000008900C988079C006AE
:101AF000002805D5FFE70998089908430890FFE7F3
:101B0000089843F60841C4F20101086043F60C400E
:101B1000C4F20100006808900998089921EA0000C1
:101B200008900C9880798006002805D5FFE7099871
:101B3000089908430890FFE7089843F60C41C4F25F
:101B40000101086043F60440C4F2010000680890F7
:101B50000998089921EA000008900C98807980077C
:101B6000002805D5FFE70998089908430890FFE782
:101B7000089843F60441C4F20101086043F60040AE
:101B8000C4F20100006808900998089921EA000051
:101B900008900C988079C007002805D0FFE70998C5
:101BA000089908430890FFE7089843F60041C4F2FB
:101BB00001010860FFE7FFE7FFE70B9801300B909A
:101BC00029E60EB07047000044F6D010C2F20000C3
:101BD0000068704740F20800C2F20000007844F646
:101BE000D011C2F200010A6810440860704700007A
:101BF00080B582B043F60040C4F20200016841F4AF
:101C000000710160016841F480610160016841F484
:101C100080710160032000F0C1F80F2000F006F889
:101C2000019000F063F8002002B080BD80B58EB056
:101C30000C900020069005900C99372202901046D7
:101C4000029B01921A4600F089F8019800F07AF898
:101C5000FFE70020039043F64000C4F20200016851
:101C600041F020010160006800F02000039003981B
:101C7000FFE707A804A900F0CBF900F0F9F940004C
:101C8000069006984DF68361C4F21B31A0FB01015A
:101C90004FF0FF3202EB9141059140F26831C2F200
:101CA000000141F20042C4F200020A6040F2E73251
:101CB000CA60059A4A6000220A618A60009008465C
:101CC00000F06EFE002809D1FFE740F26830C2F252
:101CD000000000F055FF8DF8370003E001208DF87B
:101CE0003700FFE79DF837000EB080BD80B582B0A9
:101CF000FFE70020019043F64400C4F202000168AF
:101D000041F480410160006800F480400190019836
:101D1000FFE7FFE70020009043F64000C4F2020016
:101D2000016841F080510160006800F0805000902F
:101D30000098FFE76FF001000F21002200F00EF87D
:101D400002B080BD80B582B001468DF807009DF9D4
:101D50000700009102F060FE02B080BD80B588B03F
:101D600003468DF81F00069105920020049003930E
:101D700002F06CFE04909DF91F000499069A059BE1
:101D80000290084611461A4602F088F8029901901E
:101D90000846019902F062FE08B080BD80B582B0AD
:101DA0000190019802F07CFE02B080BD80B584B045
:101DB000029001910298002804D1FFE701208DF8DC
:101DC0000F0021E1019843F60041C4F202010968C5
:101DD00001F00701884212D9FFE7019843F600415C
:101DE000C4F202010870086800F0070001998842F7
:101DF00004D0FFE701208DF80F0005E1FFE702980E
:101E00000078800700282AD5FFE70298007840076D
:101E1000002809D5FFE743F60800C4F20200016874
:101E200041F4E0510160FFE70298007800070028C4
:101E300009D5FFE743F60800C4F20200016841F447
:101E400060410160FFE743F60800C4F20200016848
:101E500021F0F001029A926811430160FFE70298B5
:101E60000078C00700286ED0FFE70298406801287C
:101E700011D1FFE743F60000C4F20200006800F44D
:101E800000300021B1EB504F04D1FFE701208DF865
:101E90000F00B9E02CE002984068022805D0FFE767
:101EA00002984068032811D1FFE743F60000C4F20E
:101EB0000200006800F000700021B1EB506F04D107
:101EC000FFE701208DF80F009EE010E043F60000D0
:101ED000C4F20200006800F002000021B1EB500FD4
:101EE00004D1FFE701208DF80F008DE0FFE7FFE749
:101EF00043F60800C4F20200016821F00301029ACF
:101F0000526811430160FFF75FFE0090FFE743F660
:101F10000800C4F20200006800F00C000299496851
:101F2000B0EB810F0ED0FFE7FFF74EFE0099401A8D
:101F300041F28931884204D3FFE703208DF80F0076
:101F400062E0E4E7FFE7019843F60041C4F20201D2
:101F5000096801F00701884212D2FFE7019843F6B1
:101F60000041C4F202010870086800F007000199FE
:101F7000884204D0FFE701208DF80F0044E0FFE71E
:101F800002980078400700280CD5FFE743F60800C8
:101F9000C4F20200016821F4E051029AD2681143B0
:101FA0000160FFE702980078000700280DD5FFE7E1
:101FB00043F60800C4F20200016821F46041029A6D
:101FC000126941EAC2010160FFE700F075F843F6CB
:101FD0000801C4F202010968C9B2090946F6D052E3
:101FE000C0F60002515CC84040F20401C2F2000198
:101FF000086040F20C00C2F200000068FFF716FE15
:1020000000218DF80F10FFE79DF80F0004B080BD90
:1020100082B00190009101980F21016043F6080001
:10202000C4F20200016801F00301019A51600168E5
:1020300001F0F001019A9160016801F4E051019A08
:10204000D160006800F46040C0080199086143F65F
:102050000040C4F20200006800F007000099086028
:1020600002B0704740F20400C2F2000000687047FE
:1020700080B5FFF7F7FF43F60801C4F202010968D3
:10208000C1F3822146F6E052C0F60002515CC8401E
:1020900080BD000080B5FFF7E5FF43F60801C4F2FC
:1020A0000201096889B2490B46F6E052C0F6000207
:1020B000515CC84080BD000080B586B0002005900E
:1020C00004900390029043F60800C4F202000068F6
:1020D00000F00C0001460028019108D0FFE70198AC
:1020E00004280AD0FFE7019808280CD04FE042F2FC
:1020F0000040C0F2F40002904FE041F60030C0F220
:10210000B700029049E043F60400C4F202000168FF
:1021100001F03F01059100684002002813D5FFE758
:1021200043F60400C4F202000068C0F3881041F6D0
:102130000031C0F2B701A0FB0101059A0023FEF7B0
:102140003FF8049012E043F60400C4F20200006875
:10215000C0F3881042F20041C0F2F401A0FB01017B
:10216000059A0023FEF72CF80490FFE743F60400DD
:10217000C4F20200006800F44030022101EBD030CC
:10218000039004980399B0FBF1F0029005E042F24D
:102190000040C0F2F4000290FFE7029806B080BD54
:1021A00080B586B004900498002804D1FFE7012090
:1021B0008DF8170055E304980078C007002800F058
:1021C000A780FFE743F60800C4F20200006800F0B1
:1021D0000C00042813D0FFE743F60800C4F2020005
:1021E000006800F00C0008281FD1FFE743F6040048
:1021F000C4F2020000684002002816D5FFE743F64B
:102200000000C4F20200006800F400300021B1EBCD
:10221000504F09D0FFE704984068002804D1FFE739
:1022200001208DF817001CE371E0FFE70498406877
:10223000B0F5803F09D1FFE743F60000C4F2020089
:10224000016841F48031016020E004984068B0F5F5
:10225000A02F0DD1FFE743F60000C4F20200016891
:1022600041F480210160016841F4803101600CE09B
:1022700043F60000C4F20200016821F480310160DD
:10228000016821F480210160FFE7FFE7FFE7049880
:10229000406800281DD0FFE7FFF796FC0390FFE79A
:1022A00043F60000C4F20200006800F40030002190
:1022B000B1EB504F0CD1FFE7FFF786FC0399401AB2
:1022C000652804D3FFE703208DF81700C9E2E7E78C
:1022D0001CE0FFF779FC0390FFE743F60000C4F22F
:1022E0000200006800F400300021B1EB504F0CD028
:1022F000FFE7FFF769FC0399401A652804D3FFE75D
:1023000003208DF81700ACE2E7E7FFE7FFE7FFE700
:10231000049800788007002840F19780FFE743F693
:102320000800C4F20200006810F00C0F13D0FFE7A1
:1023300043F60800C4F20200006800F00C00082810
:102340002CD1FFE743F60400C4F20200006840020B
:10235000002823D4FFE743F60000C4F2020000681F
:1023600000F002000021B1EB500F09D0FFE7049804
:10237000C068012804D0FFE701208DF8170070E243
:1023800043F60000C4F20200016821F0F801049A4B
:10239000126941EAC2010160FFE755E00498C06894
:1023A00000282ED0FFE70020C4F247200121016061
:1023B000FFF70AFC0390FFE743F60000C4F20200B7
:1023C000006800F002000021B1EB500F0CD1FFE7D4
:1023D000FFF7FAFB0399401A032804D3FFE7032011
:1023E0008DF817003DE2E7E743F60000C4F2020073
:1023F000016821F0F801049A126941EAC201016002
:1024000021E00020C4F2472000210160FFF7DCFB3F
:102410000390FFE743F60000C4F20200006800F0FA
:1024200002000021B1EB500F0CD0FFE7FFF7CCFB0F
:102430000399401A032804D3FFE703208DF81700FF
:102440000FE2E7E7FFE7FFE7FFE704980078000700
:1024500000284CD5FFE704984069002823D0FFE707
:1024600040F68060C4F2472001210160FFF7ACFB19
:102470000390FFE743F67400C4F20200006800F026
:1024800002000021B1EB500F0CD1FFE7FFF79CFBDE
:102490000399401A032804D3FFE703208DF817009F
:1024A000DFE1E7E722E040F68060C4F24720002148
:1024B0000160FFF789FB0390FFE743F67400C4F265
:1024C0000200006800F002000021B1EB500F0CD0B8
:1024D000FFE7FFF779FB0399401A032804D3FFE7CE
:1024E00003208DF81700BCE1E7E7FFE7FFE704985A
:1024F00000784007002840F1CF80FFE700208DF8EA
:10250000070043F64000C4F202000068C000002843
:1025100015D4FFE7FFE70020009043F64000C4F227
:102520000200016841F080510160006800F08050B5
:1025300000900098FFE701208DF80700FFE747F2C1
:102540000000C4F200000068C005002822D4FFE7A4
:1025500047F20000C4F20000016841F4807101609C
:10256000FFF732FB0390FFE747F20000C4F20000E0
:102570000068C00500280CD4FFE7FFF725FB03998E
:10258000401A032804D3FFE703208DF8170068E101
:10259000EAE7FFE7FFE704988068012809D1FFE731
:1025A00043F67000C4F20200016841F001010160CD
:1025B0001FE00498806805280DD1FFE743F67000FE
:1025C000C4F20200016841F004010160016841F0B9
:1025D000010101600CE043F67000C4F202000168E2
:1025E00021F001010160016821F004010160FFE7B1
:1025F000FFE7FFE70498806800281FD0FFE7FFF798
:10260000E3FA0390FFE743F67000C4F202000068AB
:1026100000F002000021B1EB500F0ED1FFE7FFF7F1
:10262000D3FA0399401A41F28931884204D3FFE773
:1026300003208DF8170014E1E5E71EE0FFF7C4FA68
:102640000390FFE743F67000C4F20200006800F058
:1026500002000021B1EB500F0ED0FFE7FFF7B4FAF4
:102660000399401A41F28931884204D3FFE70320DD
:102670008DF81700F5E0E5E7FFE79DF80700012872
:1026800009D1FFE743F64000C4F20200016821F0DF
:1026900080510160FFE7FFE704988069002800F09F
:1026A000DC80FFE743F60800C4F20200006800F097
:1026B0000C00082800F08580FFE704988069022854
:1026C0005CD1FFE76020C4F2472000210160FFF7E2
:1026D0007BFA0390FFE743F60000C4F202000068B3
:1026E00000F000700021B1EB506F0CD0FFE7FFF756
:1026F0006BFA0399401A032804D3FFE703208DF8EF
:102700001700AEE0E7E70498C169026A436AD0F8AF
:1027100028C0114341EA83114FEACC324FF6FF73D0
:102720009A43A2F580321143C06A41EA006043F641
:102730000401C4F2020108606020C4F247200121B4
:102740000160FFF741FA0390FFE743F60000C4F28F
:102750000200006800F000700021B1EB506F0CD156
:10276000FFE7FFF731FA0399401A032804D3FFE784
:1027700003208DF8170074E0E7E721E06020C4F241
:10278000472000210160FFF71FFA0390FFE743F69F
:102790000000C4F20200006800F000700021B1EBFC
:1027A000506F0CD0FFE7FFF70FFA0399401A032888
:1027B00004D3FFE703208DF8170052E0E7E7FFE7B7
:1027C0004AE004988069012804D1FFE701208DF8D0
:1027D000170046E043F60400C4F2020000680290CD
:1027E00004988069012831D0FFE7029800F4800046
:1027F0000499C969884229D1FFE7029800F03F0097
:102800000499096A884221D1FFE7029847F6C0710E
:1028100008400499496AB0EB811F17D1FFE702987D
:1028200000F440300499896AC9034FF6FF7291435E
:10283000A1F58031884209D1FFE7029800F070606D
:102840000499C96AB0EB016F04D0FFE701208DF84D
:10285000170006E0FFE7FFE7FFE700208DF817000D
:10286000FFE79DF8170006B080BD000081B0009022
:1028700001B0704781B0009001B0704785B00390FF
:102880000291FFE7039890F83C00012804D1FFE78C
:1028900002208DF813007EE00398012180F83C109F
:1028A000FFE7FFE70398022180F83D1003980068D6
:1028B000406801900398006880680090019820F0BB
:1028C00070000190029800680199084301900198F6
:1028D000039909684860039800680021C4F2010167
:1028E00088423CD0FFE703980068B0F1804F36D0B3
:1028F000FFE70398006840F20041C4F200018842FB
:102900002DD0FFE70398006840F60001C4F20001F3
:10291000884224D0FFE70398006840F60041C4F2E3
:10292000000188421BD0FFE70398006840F2004195
:10293000C4F20101884212D0FFE70398006844F214
:102940000001C4F20101884209D0FFE70398006842
:1029500041F60001C4F2000188420ED1FFE7009861
:1029600020F0800000900298406800990843009091
:102970000098039909688860FFE70398012180F8AF
:102980003D10FFE70398002180F83C10FFE700208E
:102990008DF81300FFE79DF8130005B070470000A5
:1029A00080B584B002900298002804D1FFE701208E
:1029B0008DF80F0043E0029890F83D00002808D100
:1029C000FFE70298002180F83C10029800F03CF8E4
:1029D000FFE70298022180F83D10029850F8041B8E
:1029E00001900846019901F0A9FB0298012180F8A5
:1029F0004610FFE70298012180F83E10029880F807
:102A00003F10029880F84010029880F84110FFE7CC
:102A1000FFE70298012180F84210029880F84310E5
:102A2000029880F84410029880F84510FFE7029859
:102A3000012180F83D1000208DF80F00FFE79DF880
:102A40000F0004B080BD000080B584B003900398EF
:102A50000068B0F1804F1BD1FFE7FFE70020029034
:102A600043F64000C4F20200016841F00101016038
:102A7000006800F0010002900298FFE71C20052189
:102A800000220190FFF76AF90198FFF75BF9FFE771
:102A900004B080BD83B00190019890F83D000128FA
:102AA00004D0FFE701208DF80B0064E001980221BB
:102AB00080F83D10019800680021C4F201018842AD
:102AC0003CD0FFE701980068B0F1804F36D0FFE7B7
:102AD0000198006840F20041C4F2000188422DD004
:102AE000FFE70198006840F60001C4F20001884247
:102AF00024D0FFE70198006840F60041C4F20001CD
:102B000088421BD0FFE70198006840F20041C4F200
:102B10000101884212D0FFE70198006844F20001E9
:102B2000C4F20101884209D0FFE70198006841F62C
:102B30000001C4F20001884212D1FFE70198006849
:102B4000806800F0070000900098062807D0FFE793
:102B500001980068016841F001010160FFE706E0AB
:102B600001980068016841F001010160FFE7002061
:102B70008DF80B00FFE79DF80B0003B070470000D5
:102B800083B00190019890F83D00012804D0FFE740
:102B900001208DF80B006AE00198022180F83D10B9
:102BA00001980068C16841F00101C16001980068A6
:102BB0000021C4F2010188423CD0FFE7019800687F
:102BC000B0F1804F36D0FFE70198006840F2004135
:102BD000C4F2000188422DD0FFE70198006840F65A
:102BE0000001C4F20001884224D0FFE70198006888
:102BF00040F60041C4F2000188421BD0FFE7019873
:102C0000006840F20041C4F20101884212D0FFE79F
:102C10000198006844F20001C4F20101884209D021
:102C2000FFE70198006841F60001C4F20001884204
:102C300012D1FFE701980068806800F0070000905B
:102C40000098062807D0FFE701980068016841F066
:102C500001010160FFE706E001980068016841F0AA
:102C600001010160FFE700208DF80B00FFE79DF8F0
:102C70000B0003B07047000080B58CB00A9009913A
:102C800000208DF82300FFE70A9890F83C00012807
:102C900004D1FFE702208DF82F00BBE00A98012144
:102CA00080F83C10FFE7FFE70A98022180F83D100A
:102CB0000A98006880680790079820F077000790CE
:102CC000079820F47F40079007980A990968886060
:102CD000099800680028069000F08280FFE70698B7
:102CE00010287DD0FFE70698202879D0FFE70698C6
:102CF000302875D0FFE70698402861D0FFE7069896
:102D000050283DD0FFE70698602849D0FFE7069895
:102D100070280BD0FFE70698B0F5805F05D0FFE77D
:102D20000698B0F5005F19D061E064E00A98006889
:102D300009994A688B68C96805911946059B01F095
:102D4000E7FA0A98006880680790079840F07700D3
:102D5000079007980A99096888604CE00A9800680B
:102D600009994A688B68C96804911946049B01F067
:102D7000CFFA0A980068816841F4804181603AE0A6
:102D80000A98006809994A68C96803911146039A2C
:102D900001F0AAFC0A980068502101F0D3FA2AE059
:102DA0000A98006809994A68C96802911146029A0E
:102DB00001F0C2FC0A980068602101F0C3FA1AE031
:102DC0000A98006809994A68C96801911146019AF0
:102DD00001F08AFC0A980068402101F0B3FA0AE089
:102DE0000A9800680999096801F0ACFA03E001202B
:102DF0008DF82300FFE70A98012180F83D10FFE7D6
:102E00000A98002180F83C10FFE79DF823008DF818
:102E10002F00FFE79DF82F000CB080BD81B000901F
:102E200001B0704780B582B00190019800680069D8
:102E300000F002000021B1EB500F29D0FFE701980C
:102E40000068C06800F002000021B1EB500F1ED0F6
:102E5000FFE7019800686FF002010161019801210C
:102E600001770198006880698007002804D0FFE797
:102E70000198FFF7D3FF06E0019800F04BF90198A5
:102E800000F062FAFFE7019800210177FFE7FFE712
:102E900001980068006900F004000021B1EB900F78
:102EA00029D0FFE701980068C06800F00400002105
:102EB000B1EB900F1ED0FFE7019800686FF004019E
:102EC000016101980221017701980068806910F47E
:102ED000407F04D0FFE70198FFF7A0FF06E00198CC
:102EE00000F018F9019800F02FFAFFE7019800218F
:102EF0000177FFE7FFE701980068006900F008002C
:102F00000021B1EBD00F29D0FFE701980068C0681D
:102F100000F008000021B1EBD00F1ED0FFE70198B0
:102F200000686FF0080101610198042101770198A0
:102F30000068C0698007002804D0FFE70198FFF708
:102F40006DFF06E0019800F0E5F8019800F0FCF94B
:102F5000FFE7019800210177FFE7FFE7019800688C
:102F6000006900F010000021B1EB101F29D0FFE72D
:102F700001980068C06800F010000021B1EB101F3C
:102F80001ED0FFE7019800686FF010010161019801
:102F90000821017701980068C06910F4407F04D0CF
:102FA000FFE70198FFF73AFF06E0019800F0B2F85A
:102FB000019800F0C9F9FFE7019800210177FFE7C8
:102FC000FFE7019800680069C007002811D0FFE7FB
:102FD00001980068C068C007002809D0FFE7019881
:102FE00000686FF001010161019800F099FAFFE7B4
:102FF000FFE7019800680069C0B20021B1EBD01F63
:1030000013D0FFE701980068C068C0B20021B1EB9F
:10301000D01F09D0FFE7019800686FF080010161BF
:103020000198FFF723FCFFE7FFE7019800680069BC
:1030300000F040000021B1EB901F14D0FFE7019891
:103040000068C06800F040000021B1EB901F09D07B
:10305000FFE7019800686FF040010161019800F0FE
:1030600079FAFFE7FFE701980068006900F02000A7
:103070000021B1EB501F14D0FFE701980068C06831
:1030800000F020000021B1EB501F09D0FFE70198AC
:1030900000686FF0200101610198FFF7EBFBFFE78B
:1030A000FFE702B080BD000080B588B00790002027
:1030B000069005900490039002900798006840F6EF
:1030C0000041C4F20001884222D1FFE7FFE700205F
:1030D000019043F63000C4F20200016841F0800123
:1030E0000160006800F0800001900198FFE74FF454
:1030F000E050029002200390002104910591069077
:1031000041F60040C4F2020002A9FEF77BFBFFE794
:1031100008B080BD81B0009001B0704780B586B026
:1031200004900391029200208DF80700FFE70498B5
:1031300090F83C00012804D1FFE702208DF8170029
:1031400089E00498012180F83C10FFE7FFE702982E
:103150000C28009000F270800099DFE801F0076D04
:103160006D6D206D6D6D3A6D6D6D53000498006846
:10317000039901F0FDF804980068816941F00801A5
:10318000816104980068816921F0040181610398DC
:103190000069049909688A691043886150E00498BD
:1031A0000068039901F05AF904980068816941F4B4
:1031B0000061816104980068816921F48061816106
:1031C00003980069049909688A6942EA00208861C5
:1031D00036E004980068039901F0BAF90498006891
:1031E000C16941F00801C16104980068C16921F01A
:1031F0000401C1610398006904990968CA69104310
:10320000C8611DE004980068039901F01BFA049856
:103210000068C16941F40061C16104980068C16936
:1032200021F48061C1610398006904990968CA6941
:1032300042EA0020C86103E001208DF80700FFE7A3
:10324000FFE70498002180F83C10FFE79DF8070095
:103250008DF81700FFE79DF8170006B080BD00004D
:1032600080B584B002900298002804D1FFE70120C5
:103270008DF80F0043E0029890F83D00002808D137
:10328000FFE70298002180F83C10029800F03CF81B
:10329000FFE70298022180F83D10029850F8041BC5
:1032A00001900846019900F049FF0298012180F839
:1032B0004610FFE70298012180F83E10029880F83E
:1032C0003F10029880F84010029880F84110FFE704
:1032D000FFE70298012180F84210029880F843101D
:1032E000029880F84410029880F84510FFE7029891
:1032F000012180F83D1000208DF80F00FFE79DF8B8
:103300000F0004B080BD000082B0019001980068F9
:1033100040F60041C4F20001884212D1FFE7FFE706
:103320000020009043F64000C4F20200016841F022
:1033300008010160006800F0080000900098FFE7B5
:10334000FFE702B07047000081B0009001B0704705
:1033500080B58CB00A9009910998002805D1FFE743
:103360000A9890F83E0007901CE00998042805D1BF
:10337000FFE70A9890F83F00069010E009980828A7
:1033800005D1FFE70A9890F84000059004E00A98FC
:1033900090F841000590FFE705980690FFE7069832
:1033A0000790FFE70798012804D0FFE701208DF878
:1033B0002F00B1E00998002805D1FFE70A98022103
:1033C00080F83E101EE00998042806D1FFE70A980D
:1033D000022180F83F10049112E00998082806D1D4
:1033E000FFE70A98022180F84010039105E00A984F
:1033F000022180F841100391FFE703980490FFE752
:103400000498FFE70A98006809990122029200F0E7
:1034100063FF0A98006802990022C4F201029042F8
:1034200001910CD0FFE70A9800684FF60041CBF6F7
:10343000FE710844B0FA80F040090190FFE701985E
:10344000C007002807D0FFE70A980068416C41F4E4
:1034500000414164FFE70A9800680021C4F20101BD
:1034600088423CD0FFE70A980068B0F1804F36D020
:10347000FFE70A98006840F20041C4F20001884268
:103480002DD0FFE70A98006840F60001C4F2000161
:10349000884224D0FFE70A98006840F60041C4F251
:1034A000000188421BD0FFE70A98006840F2004103
:1034B000C4F20101884212D0FFE70A98006844F282
:1034C0000001C4F20101884209D0FFE70A980068B0
:1034D00041F60001C4F20001884212D1FFE70A98C8
:1034E0000068806800F0070008900898062807D058
:1034F000FFE70A980068016841F001010160FFE7F9
:1035000006E00A980068016841F001010160FFE7E8
:1035100000208DF82F00FFE79DF82F000CB080BD34
:1035200080B582B001900198006841F20041C4F278
:103530000001884203D1FFE7FEF74CFBFFE701984B
:103540000068B0F1804F03D1FFE701F03FFBFFE7D8
:1035500002B080BD81B0009001B0704780B582B0EC
:1035600000900098002804D1FFE701208DF80700A3
:1035700040E000988069002801D0FFE700E0FFE705
:10358000009890F83D00002808D1FFE7009800213E
:1035900080F83C10009800F031F8FFE700982421F3
:1035A00080F83D1000980068C16821F40051C160A6
:1035B000009801F0EBF800980068016921F490414F
:1035C000016100980068416921F02A014161009879
:1035D0000068C16841F40051C16000980021016495
:1035E0000098202280F83D20009880F83E208DF839
:1035F0000710FFE79DF8070002B080BD80B594B0CA
:10360000139000201290119010900F900E9013982C
:10361000006841F20001C4F20101884240F0BC8020
:10362000FFE7FFE700200D9043F64400C4F20200DC
:10363000016841F010010160006800F010000D9079
:103640000D98FFE7FFE700200C9043F63000C4F22E
:103650000200016841F002010160006800F0020010
:103660000C900C98FFE7FFE700200B9043F630002A
:10367000C4F20200016841F001010160006800F03D
:1036800001000B900B98FFE780200E9002200F9016
:1036900000211091032211920723129340F2004C53
:1036A000C4F2020C0DF1380E089060460791714685
:1036B00006920593CDF810E0FEF7A4F84FF40070E1
:1036C0000E9008980F9007991091069A1192059BF9
:1036D00012930020C4F202000499FEF793F840F21E
:1036E0005810C2F2000046F24041C4F202010160EB
:1036F0004FF00061416007998160C1604FF48062C2
:10370000026141618161C16101624162FDF7BEFFF9
:10371000002803D0FFE7FCF7D3FEFFE7FFE713988D
:1037200040F25811C2F20001816313988863FFE7E9
:1037300040F2B810C2F2000046F2B841C4F20201F1
:1037400001604FF000614160402181600021C16053
:103750004FF48062026141618161C1610162416235
:10376000FDF794FF002803D0FFE7FCF7A9FEFFE771
:10377000FFE7139840F2B811C2F2000141631398B9
:103780008863FFE72520052100220390FEF7E6FA73
:103790000398FEF7D7FA9EE01398006841F20041C3
:1037A000C4F20101884240F09580FFE7FFE7002066
:1037B0000A9043F64400C4F20200016841F020017F
:1037C0000160006800F020000A900A98FFE7FFE718
:1037D0000020099043F63000C4F20200016841F075
:1037E00040010160006800F0400009900998FFE77F
:1037F0004FF484400E9002200F900020109003217F
:1038000011910821129141F60001C4F202010EAAA1
:10381000029008461146FDF7F5FF40F21820C2F26B
:10382000000046F22841C4F2020101604FF020611D
:10383000416002998160C1604FF480620261416120
:103840008161C16101624162FDF720FF002803D060
:10385000FFE7FCF735FEFFE7FFE7139840F218217A
:10386000C2F20001816313988863FFE740F2782079
:10387000C2F2000046F2A041C4F2020101604FF022
:1038800020614160402181600021C1604FF480626D
:10389000026141618161C16101624162FDF7F6FE31
:1038A000002803D0FFE7FCF70BFEFFE7FFE71398C4
:1038B00040F27821C2F20001416313988863FFE768
:1038C0004720052100220190FEF748FA0198FEF7F3
:1038D00039FAFFE7FFE714B080BD0000FFE7FEE71D
:1038E00080B586B040F22030C2F200000590FFF7AC
:1038F000D1F80021059A04901046FFF729FD042114
:10390000059A03901046FFF723FD0821059A0290BF
:103910001046FFF71DFD4FF0FF310190084601F002
:10392000DDF806B080BD000080B540F20810C2F29C
:10393000000046F20041C4F2000101600321416031
:1039400000218160C1604FF4102202614FF4001227
:103950004261017641768176C17601774177FDF744
:10396000BFF9002803D0FFE7FCF7AAFDFFE780BD01
:1039700080B540F23010C2F2000046F60001C4F2F9
:10398000000101600321416000218160C1604FF4AA
:10399000102202614FF40012426101764176817675
:1039A000C17601774177FDF79BF9002803D0FFE747
:1039B000FCF786FDFFE780BD80B588B0FFE70020FB
:1039C000079043F63000C4F20200016841F4800120
:1039D0000160006800F4800007900798FFE7392035
:1039E00005210022069005910492FEF7B7F906988A
:1039F000FEF7A8F93A2003900599049AFEF7AEF96C
:103A00000398FEF79FF9452002900599049AFEF766
:103A1000A5F90298FEF796F9462001900599049AB7
:103A2000FEF79CF90198FEF78DF908B080BD000003
:103A300010B5ACB046F6B450C0F60000016842685C
:103A40008368D0F80CC0D0F810E044692A94CDF80F
:103A5000A4E0CDF8A0C027932692259180692B90F1
:103A600025A80021019101F0CBFA40F2C001C2F279
:103A70000001086046F64450C0F600000168426844
:103A80008368D0F80CC0D0F810E044692394CDF8D6
:103A900088E0CDF884C020931F921E918069249005
:103AA0001EA8019901F0ACFA40F22001C2F2000117
:103AB000086046F69850C0F60000016842688368C6
:103AC000D0F80CC0D0F810E044691C94CDF86CE03C
:103AD000CDF868C019931892179180691D9017A8A6
:103AE000019901F08DFA40F28C01C2F200010860E8
:103AF00046F66050C0F60000016842688368D0F85E
:103B00000CC0D0F810E044691594CDF850E0CDF821
:103B10004CC01293119210918069169010A80199CF
:103B200001F06EFA40F27401C2F20001086046F63C
:103B30002850C0F60000016842688368D0F80CC0C5
:103B4000D0F810E044690E94CDF834E0CDF830C0E0
:103B50000B930A92099180690F9009A8019901F0CD
:103B60004FFA40F21C01C2F20001086046F67C5098
:103B7000C0F60000016842688368D0F80CC0D0F835
:103B800010E044690794CDF818E0CDF814C0049310
:103B9000039202918069089002A8019901F030FA1D
:103BA00040F27801C2F2000108602CB010BD0000A4
:103BB00080B58CB000200B900A9009900890079077
:103BC000FFE70020069043F63000C4F202000168CF
:103BD00041F002010160006800F0020006900698C2
:103BE000FFE7FFE70020059043F63000C4F2020033
:103BF000016841F040010160006800F0400005905C
:103C00000598FFE7FFE70020049043F63000C4F278
:103C10000200016841F001010160006800F001004C
:103C200004900498FFE7FFE70020039043F630007C
:103C3000C4F20200016841F008010160006800F070
:103C4000080003900398FFE7FFE70020029043F687
:103C50003000C4F20200016841F004010160006814
:103C600000F0040002900298FFE7FFE700200190B7
:103C700043F63000C4F20200016841F080010160A7
:103C8000006800F0800001900198FFE74FF4806029
:103C90000790022008900020099003200A90072036
:103CA0000B9040F60000C4F2020007A9FDF7AAFD40
:103CB0000CB080BD80B586B00020059004900390C4
:103CC00002900190009040F2D821C2F200014FF022
:103CD00080420A6053224A60886040F2E732CA603C
:103CE0000861802088610846FEF75AFE002803D04C
:103CF000FFE7FCF7E5FBFFE74FF48050029040F24E
:103D0000D820C2F2000002A9FEF7B6FF002803D0B7
:103D1000FFE7FCF7D5FBFFE700200090019040F2A1
:103D2000D820C2F200006946FEF7A8FD002803D0A3
:103D3000FFE7FCF7C5FBFFE706B080BD80B58AB0A2
:103D40000020099008900790069005900490039039
:103D50000290019040F22031C2F2000140F6004290
:103D6000C4F200020A60486088604FF6FF72CA60C1
:103D7000086188610846FFF773FA002803D0FFE75F
:103D8000FCF79EFBFFE700200890099040F22030EE
:103D9000C2F2000008A9FEF771FD002803D0FFE77A
:103DA000FCF78EFBFFE7602001900020029003905B
:103DB000059040F22031C2F2000101AA00900846AD
:103DC0001146009AFFF7AAF9002803D0FFE7FCF795
:103DD00077FBFFE740F22030C2F2000001A9042285
:103DE000FFF79CF9002803D0FFE7FCF769FBFFE72A
:103DF00040F22030C2F2000001A90822FFF78EF93C
:103E0000002803D0FFE7FCF75BFBFFE740F2203020
:103E1000C2F20000FFF748F90AB080BD80B540F259
:103E2000B030C2F2000041F20001C4F201010160B1
:103E30004FF4E131416000218160C16001610C22D9
:103E400042618161C161FFF789FB002803D0FFE770
:103E5000FCF736FBFFE780BD80B540F2F430C2F2DC
:103E6000000041F20041C4F2010101604FF4E13170
:103E7000416000218160C16001610C224261816169
:103E8000C161FFF76BFB002803D0FFE7FCF718FBCD
:103E9000FFE780BDFFE7FEE7FFE7FEE788B007909A
:103EA00006910592079800F0070004900498C0F16D
:103EB0000700052803D3FFE70420019004E00498DD
:103EC000C0F107000190FFE70198039004980430C7
:103ED000062803D8FFE70020009003E00498033889
:103EE0000090FFE70098029006980399012202FAD9
:103EF00001F10139084002998840059B02FA01F15D
:103F000001391940084308B0704700000000000064
:103F1000EFF30980BFF36F8F154B1A681EF0100F77
:103F200008BF20ED108A20E9F04F10602DE909004C
:103F30004FF0500080F31188BFF34F8FBFF36F8FA6
:103F400002F0FAFA4FF0000080F31188BDE8090092
:103F500019680868B0E8F04F1EF0100F08BFB0EC09
:103F6000108A80F30988BFF36F8F704700BF00BFCE
:103F70004804002080B588B0079000200690059086
:103F800004900390029000F061FF40F2E440C2F21E
:103F9000000040F2FC41C2F200014FF4806200F0E8
:103FA00051FE44F2D051C2F2000101F500724FF40B
:103FB00000730190084611461A4601F0ABFFFFE777
:103FC00001F0A8FE02A8052101F00EF80090F7E725
:103FD000074B19680868B0E8F04F80F30988BFF311
:103FE0006F8F4FF0000080F31188704700BF00BF53
:103FF0004804002080B582B00190FFE7012000F066
:10400000DDFF0090FAE7000080B582B04FF050006D
:1040100080F31188BFF36F8FBFF34F8F009002F0D2
:10402000C9FC002808D0FFE74EF60450CEF200008D
:104030004FF080510160FFE700200190019880F36C
:10404000118802B080BD000080B594B008A830216E
:10405000FCF700F90020079006900590049003906B
:10406000FFE70020029043F64000C4F2020001681E
:1040700041F080510160006800F080500290029889
:10408000FFE7FFE70020019047F20000C4F20000C4
:10409000016841F480410160006800F480400190B3
:1040A0000198FFE7012008904FF48030099002202A
:1040B0000E904FF480010F9106211091A8211191CB
:1040C00012900420139008A8FEF76AF8002803D085
:1040D000FFE7FCF7F5F9FFE70F20039002200490BB
:1040E000002005904FF4A05006904FF480500790A8
:1040F00003A80521FDF75AFE002803D0FFE7FCF7CF
:10410000DFF9FFE714B080BD4EF68850CEF2000014
:10411000016841F4700101607047000080B540F211
:10412000D820C2F20000FEF77DFE80BD80B540F2CF
:104130006830C2F20000FEF775FE80BD83B00290C9
:10414000019102980068009002980021C4F20101D8
:10415000884225D0FFE70298B0F1804F20D0FFE7DA
:10416000029840F20041C4F20001884218D0FFE7F3
:10417000029840F60001C4F20001884210D0FFE727
:10418000029840F60041C4F20001884208D0FFE7DF
:10419000029840F20041C4F2010188420AD1FFE7CF
:1041A000009820F070000090019840680099084342
:1041B0000090FFE702980021C4F20101884255D027
:1041C000FFE70298B0F1804F50D0FFE7029840F22D
:1041D0000041C4F20001884248D0FFE7029840F64F
:1041E0000001C4F20001884240D0FFE7029840F687
:1041F0000041C4F20001884238D0FFE7029840F243
:104200000041C4F20101884230D0FFE7029844F235
:104210000001C4F20101884228D0FFE7029844F26D
:104220000041C4F20101884220D0FFE7029844F621
:104230000001C4F20101884218D0FFE7029841F65C
:104240000001C4F20001884210D0FFE7029841F655
:104250000041C4F20001884208D0FFE7029842F210
:104260000001C4F2000188420AD1FFE7009820F45F
:10427000407000900198C068009908430090FFE7E3
:10428000009820F080000199496908430090009847
:1042900002990860019880680299C86201980068D4
:1042A0000299886202980021C4F20101884208D074
:1042B000FFE7029840F20041C4F20101884205D1B3
:1042C000FFE70198006902990863FFE7029801215E
:1042D000416103B07047000084B0039002910192E5
:1042E000029800F01F00012101FA00F000900098F0
:1042F00003990A6A22EA000008620198029901F013
:104300001F01884003990A6A1043086204B070478D
:1043100085B0049003910292019304988068009004
:10432000009820F47F40009003980299019A41EA96
:10433000022108430099084300900098049988607E
:1043400005B0704783B00290019102988068009098
:10435000009820F07000009001980099084340F008
:104360000700009000980299886003B07047000031
:1043700085B0049003910498016A21F00101016263
:104380000498006A0190049840680090049880693D
:104390000290029820F070000290029820F0030032
:1043A000029003980068029908430290019820F057
:1043B00002000190039880680199084301900498D5
:1043C0000021C4F20101884208D0FFE7049840F2BE
:1043D0000041C4F2010188420ED1FFE7019820F0AC
:1043E000080001900398C068019908430190019862
:1043F00020F004000190FFE704980021C4F20101BD
:10440000884208D0FFE7049840F20041C4F201015D
:10441000884213D1FFE7009820F480700090009844
:1044200020F40070009003984069009908430090C0
:1044300003988069009908430090FFE70098049969
:104440004860029804998861039840680499486319
:1044500001980499086205B07047000085B0049087
:1044600003910498016A21F0100101620498006A26
:104470000190049840680090049880690290029826
:1044800020F4E0400290029820F4407002900398DB
:104490000068029941EA00200290019820F0200073
:1044A000019003988068019941EA001001900498F6
:1044B0000021C4F20101884208D0FFE7049840F2CD
:1044C0000041C4F2010188420FD1FFE7019820F0BA
:1044D000800001900398C068019941EA00100190A2
:1044E000019820F040000190FFE704980021C4F2F9
:1044F0000101884208D0FFE7049840F20041C4F26D
:104500000101884215D1FFE7009820F480600090F7
:10451000009820F40060009003984069009941EAF7
:104520008000009003988069009941EA8000009023
:10453000FFE70098049948600298049988610398FD
:1045400040680499886301980499086205B070472F
:1045500085B0049003910498016A21F4807101628E
:104560000498006A01900498406800900498C0691B
:104570000290029820F070000290029820F0030050
:10458000029003980068029908430290019820F471
:104590000070019003988068019941EA0020019021
:1045A00004980021C4F20101884208D0FFE7049872
:1045B00040F20041C4F2010188420FD1FFE70198A7
:1045C00020F4006001900398C068019941EA00203E
:1045D0000190019820F480600190FFE70498002189
:1045E000C4F20101884208D0FFE7049840F200417C
:1045F000C4F20101884215D1FFE7009820F48050F1
:104600000090009820F400500090039840690099B1
:1046100041EA0010009003988069009941EA001077
:104620000090FFE700980499486002980499C861D7
:10463000039840680499C86301980499086205B01A
:104640007047000085B0049003910498016A21F43A
:10465000805101620498006A0190049840680090BB
:104660000498C0690290029820F4E04002900298F9
:1046700020F44070029003980068029941EA0020FB
:104680000290019820F400500190039880680199ED
:1046900041EA0030019004980021C4F201018842EF
:1046A00008D0FFE7049840F20041C4F201018842BB
:1046B0000BD1FFE7009820F48040009003984069F8
:1046C000009941EA80100090FFE700980499486043
:1046D00002980499C8610398406804990864019895
:1046E0000499086205B0704785B004900391029266
:1046F0000498006A00900498016A21F001010162A7
:10470000049880690190019820F0F00001900298CF
:10471000019941EA00100190009820F00A000090F1
:1047200003980099084300900198049988610098C3
:104730000499086205B0704785B004900391029215
:104740000498016A21F010010162049880690190C7
:104750000498006A0090019820F47040019002983B
:10476000019941EA00300190009820F0A0000090EB
:104770000398009941EA001000900198049988611B
:1047800000980499086205B07047000080B588B0B1
:10479000079007980068006920F4405007990A685C
:1047A000C968084310610798816802694369C06954
:1047B000114319430843069007980068C06849F2FE
:1047C0000C6188430699084307990968C8600798EF
:1047D0000068406920F4407007990A6889690843B5
:1047E00050610798006841F20001C4F2010188425B
:1047F00009D0FFE70798006841F20041C4F20101C7
:10480000884204D1FFE7FDF745FC059003E0FDF782
:104810002FFC0590FFE70798C069B0F5004F2FD136
:10482000FFE705981921A0FB0101079A1368526858
:104830004FEA420CD20F04926246DDF810C0039397
:104840006346FBF7BDFC48F21F51C5F2EB11A0FB1C
:1048500001235B094FEA031C4FF0640E03FB1E00AB
:10486000322303EBC000A0FB0101F82303EA51133C
:104870000CEB4303C1F342111944039B99602EE0F2
:1048800005981921A0FB0101079A136852684FEAA5
:10489000820C920F02926246DDF808C001936346D3
:1048A000FBF78EFC48F21F51C5F2EB11A0FB012370
:1048B0005B094FF0640C03FB1C004FF0320C0CEB57
:1048C0000010A0FB01014FF0F00C0CEA511C0CEBA6
:1048D0000313C1F343111944019B9960FFE708B02A
:1048E00080BD000080B582B00190FFE7012000F09C
:1048F00065FB0090FAE7000080B582B041F200004D
:10490000C4F201000068C006002840F18080FFE783
:10491000FFE70020019040F2B030C2F200000168D1
:10492000096801910068406801900198FFE740F232
:10493000B030C2F20000806B0068006800030028FD
:1049400031D4FFE740F2B030C2F20000816B096859
:104950000A6822F001020A60816B09684968C1F5A2
:10496000007140F29002C2F200021180816B09686E
:104970004FF400734B60816B09680B6843F40023AC
:104980000B60806B0068016841F0010101601288D2
:1049900040F2E440C2F2000044F2D051C2F2000101
:1049A00000F06CF932E040F2B030C2F20000816BEE
:1049B00009680A6822F001020A60816B0968496887
:1049C000C1F5007140F29002C2F200021180816BC9
:1049D00009684FF400734B60816B09680B6823F41E
:1049E00000230B60806B0068016841F001010160E9
:1049F000128844F2D050C2F2000000F5007140F27B
:104A0000E440C2F2000000F039F9FFE7FFE702B02E
:104A100080BD0000FFE7FEE781B001468DF803008E
:104A20009DF9030000280FD4FFE79DF9030000F073
:104A30001F01012202FA01F140094EF20012CEF2EA
:104A4000000242F82010FFE701B070474EF60C500C
:104A5000CEF200000068C0F30220704782B0024628
:104A60008DF8070000919DF9070000280AD4FFE7A0
:104A7000009800019DF907104EF20042CEF20002AC
:104A800088540BE0009800019DF8071001F00F0119
:104A90004EF61452CEF200028854FFE702B070477F
:104AA00083B00290029800F0070000904EF60C5080
:104AB000CEF200000168019101994FF6FF0211400A
:104AC00001910199009A41EA02210022C0F2FA52B2
:104AD000114301910199016003B0704781B00090CA
:104AE0009DF8030040F2A801C2F2000108709DF891
:104AF00002000A78504340F2AE02C2F20002108077
:104B00009DF801000B78584340F2AC03C2F2000359
:104B100018809DF800000978484340F2AA01C2F2CB
:104B200000010880088840F22031C2F20001D1F86B
:104B300000C0CCF8340018880B68986310880968A6
:104B4000C86301B07047000080B594B00120129096
:104B50000021109111900A910B910C910D910F91E0
:104B60000E9140F20810C2F200000AAA09900891C2
:104B700011460792FBF7D6FC099906900846FCF708
:104B800081FB0221099A059010460491FBF7A0FCD5
:104B90000E211391089A0E920F9140F23011C2F239
:104BA000000103900846079B02911946FBF7BAFCE7
:104BB000029901900846FCF765FB029900900846AF
:104BC0000499FBF785FC14B080BD0000704700001D
:104BD00080B540F2D820C2F20000FDF7D1FF80BDC1
:104BE00086B0029000208DF80300EFF31080039050
:104BF00003980190EFF3108072B604900298416818
:104C00000069884204D9FFE7029801680161FFE763
:104C10000298006900788DF803000298016901315B
:104C2000016102988168013181600298C16801398F
:104C3000C16001980590059880F310889DF80300E5
:104C400006B0704783B002900191009201980299DA
:104C5000086001980099084401380299486000985A
:104C60000299886002980021C1600198029A10613F
:104C70000198029A5061084603B0704780B58EB023
:104C8000089007910692EFF310800A900A98059019
:104C9000EFF3108072B60B900798002801D1FFE760
:104CA00067E008988068002801D1FFE761E0089874
:104CB00041684069884204D9FFE70898016841616A
:104CC000FFE7069808998968884203DAFFE70698A3
:104CD000019003E0089880680190FFE70198069032
:104CE000089841684069081A0130039003980699B2
:104CF00088420EDBFFE70698039008984069079901
:104D0000039AFBF78EFA0399089A53691944516183
:104D10001BE006980399401A029008984069079989
:104D2000039AFBF77EFA08990968079A039B1A44CD
:104D3000029B0090084611461A46FBF772FA089942
:104D40000A68029B1A444A61FFE7069808998A6834
:104D5000101A886006980899CA681044C8600698B6
:104D6000049005980C900C9880F310880498099092
:104D700008E005980D900D9880F310884FF0FF30F3
:104D80000990FFE709980EB080BD000081B0009047
:104D90000098C06801B0704784B01346029001913A
:104DA000ADF802200298002805D1FFE74FF6FF700A
:104DB000ADF80E0022E0FFE70198411E01910028A6
:104DC00017D0FFE70298411C029100788DF801008E
:104DD000BDF802009DF801104140C9B246F62672A6
:104DE000C0F6000232F8111081EA1020ADF802007E
:104DF000E2E7BDF80200ADF80E00FFE7BDF80E00D7
:104E000004B0704783B01346029001918DF80320DF
:104E1000FFE70198411E0191002813D0FFE79DF89C
:104E2000030002994A1C0292097848408DF802005A
:104E30009DF8020046F6E851C0F60001085C8DF8C6
:104E40000300E6E79DF8030003B0704740F6FC005E
:104E5000C2F2000000210171016040F60110C2F2AF
:104E600000000171016040F2FC00C2F20000C0F8D5
:104E700007104160016040F2C800C2F200000170FA
:104E800040F2CA00C2F20000C1618161416101616A
:104E9000C16081604160016040F2C400C2F2000064
:104EA000016040F6C410C2F20000016040F6C81074
:104EB000C2F200008170018040F68F10C2F2000043
:104EC000018040F69A10C2F20000017781614161D1
:104ED0000161C16081604160016040F23840C2F20E
:104EE0000000C16081604160016040F2EC00C2F2EC
:104EF0000000C16081604160016040F2B000C2F218
:104F00000000017040F69810C2F20000017040F6F7
:104F10009910C2F20000017040F6B710C2F2000012
:104F2000C0F80310016040F2B200C2F200008180BC
:104F3000016040F69410C2F20000016040F6BE101D
:104F4000C2F20000818001607047000080B582B02D
:104F500000200190FCF74CFE0090FFF775F8FEF77B
:104F600027FEFEF729FDFEF7DFFCFEF701FDFEF749
:104F7000E5FEFEF753FFFEF76FFFFEF79BFE00F026
:104F8000C1FFFEF755FD00F035F8FFE7FEE7000032
:104F900082B00146ADF8060000200090BDF9060081
:104FA000842807D0FFE7BDF90600009908440330C4
:104FB0000090FFE7009802B07047000080B584B011
:104FC0000390039802900298002803D0FFE702980C
:104FD000019002E001200190FFE7019801F0FEF945
:104FE000002004B080BD000082B0019000918120BB
:104FF00002B0704780B501F02BFA002080BD0000A0
:1050000080B590B00E900D910E984069002823D085
:10501000FFE70E98806900281ED0FFE70E98016810
:1050200042680369DDF834C0B0F908000B910A92B8
:105030000993CDF820C0FFF7ABFF0E994A69896943
:105040006B4699605A6018600A980B99099A089BF8
:1050500001F044FC0C901FE00E9801684268038A3E
:10506000DDF834C0B0F90800079106920593CDF839
:1050700010C0FFF78DFF69460CAA4A6008600698C9
:105080000799059A049B01F0CFFB012803D0FFE7A5
:1050900000200F9003E0FFE70C980F90FFE70F98B8
:1050A00010B080BD80B584B00390029144F6D0402A
:1050B000C2F200000068009040F24840C2F20000D6
:1050C0000068043000F0F2FF002812D1FFE740F240
:1050D0004840C2F200000068C06A012101FA00F0F5
:1050E00044F6E411C2F200010A6822EA00000860F6
:1050F00000E0FFE703980130002811D1FFE7029894
:1051000000280DD0FFE740F24840C2F200000068DE
:10511000011D44F6A840C2F2000001F057F83DE03E
:105120000098039908440190019840F24841C2F266
:105130000001096848600198009988420ED2FFE793
:1051400040F25440C2F20000006840F24841C2F20E
:1051500000010968043101F003F81EE040F24C4000
:10516000C2F20000006840F24841C2F20001096842
:10517000043100F0F5FF019844F67441C2F20001D9
:105180000968884207D2FFE7019844F67441C2F2E9
:105190000001086000E0FFE7FFE7FFE704B080BD23
:1051A00080B582B0019001F039F844F6D410C2F213
:1051B000000001680131016040F24840C2F2000085
:1051C0000068002813D1FFE7019840F24841C2F27D
:1051D0000001086044F6D410C2F200000068012803
:1051E00003D1FFE700F0D2F900E0FFE71DE044F64D
:1051F0009C40C2F200000068002814D1FFE740F292
:105200004840C2F200000068C06A0199C96A884239
:1052100007D8FFE7019840F24841C2F20001086058
:1052200000E0FFE700E0FFE7FFE744F6E010C2F22E
:1052300000000168013101600198C06A012101FA92
:1052400000F044F6E411C2F200010A68104308605D
:105250000198C16A01EB810140F25842C2F200029A
:1052600002EB8101043000900846009900F0AEFF87
:1052700001F000F844F69C40C2F2000000680028EB
:1052800019D0FFE740F24840C2F200000068C06A4F
:105290000199C96A88420CD2FFE74EF60450CEF25B
:1052A00000004FF080510160BFF34F8FBFF36F8F4D
:1052B00000E0FFE700E0FFE702B080BD80B582B00C
:1052C000FFE744F6D810C2F200000068002822D0A0
:1052D000FFE700F0A3FF44F6BC40C2F20000C06844
:1052E000C06801900198043000F0E0FE44F6D4114B
:1052F000C2F200010A68013A0A6044F6D811C2F20B
:1053000000010A68013A0A60009000F0B3FF0198BA
:1053100000F004F8D5E702B080BD000080B582B08F
:105320000090009890F85100002808D1FFE70098FD
:10533000006B00F0C7FF009800F0C4FF1CE000986D
:1053400090F85100012804D1FFE7009800F0BAFF5F
:1053500011E0009890F8510002280BD0FFE74FF0C1
:10536000500080F31188BFF36F8FBFF34F8F019010
:10537000FFE7FEE7FFE7FFE702B080BD84B04FF430
:105380007050009040F6CB10C2F2000001909DF8E2
:1053900004004007002811D0FFE701980730019072
:1053A000019820F007000190019840F6CB11C2F25D
:1053B0000001009A081A10440090FFE7019802903B
:1053C000029844F6A041C2F2000108600020486043
:1053D0000299009A114401910199083901910199AA
:1053E00021F007010191019940F25042C2F20002FE
:1053F0001160116848601168086002980390019874
:105400000399401A4860106803990860039840683F
:1054100044F67041C2F2000108600398406844F607
:105420001421C2F20001086044F6E810C2F2000044
:105430004FF00041016004B07047000080B582B0B9
:105440000190FFE7FFF73AFF40F25840C2F2000038
:10545000006802280CD3FFE74EF60450CEF200009D
:105460004FF080510160BFF34F8FBFF36F8F00E0AB
:10547000FFE7E7E7B0B588B0DDF83CC0DDF838E01D
:105480000D9C0C9D06900591049203930E98006B61
:10549000049900EB810004380290029820F0070084
:1054A00002909DF80800400700280BD0FFE74FF05E
:1054B000500080F31188BFF36F8FBFF34F8F0790B9
:1054C000FFE7FEE70598002820D0FFE700200190C5
:1054D000FFE701980F2814D8FFE705980199405C71
:1054E0000E9A114481F8340005980199405C002817
:1054F00001D1FFE705E0FFE7FFE7019801300190E8
:10550000E7E70E98002180F8431004E00E98002190
:1055100080F83410FFE70C98072803D3FFE7062034
:105520000C9000E0FFE70C980E99C8620C980E9959
:1055300048640E98002181640E980430009100F0B8
:1055400007FE0E98183000F003FE0E9800610C98CC
:10555000C0F107000E9988610E9840620E9800997C
:10556000C1640E9880F8501002980699039A00F0D2
:1055700017FA0E9908600D98002804D0FFE70E98DE
:105580000D99086000E0FFE708B0B0BD80B584B0B9
:1055900000200390FFE70398062810D8FFE7039840
:1055A00000EB800040F25841C2F2000101EB8000A4
:1055B00000F0B6FDFFE7039801300390EBE744F6F7
:1055C000EC10C2F20000029000F0AAFD44F60020A8
:1055D000C2F20000019000F0A3FD44F68840C2F240
:1055E000000000F09DFD44F6BC40C2F2000000F057
:1055F00097FD44F6A840C2F2000000F091FD40F291
:105600004C40C2F200000299016040F25440C2F2E4
:105610000000019A026004B080BD000083B00290D7
:1056200044F6A040C2F200000190FFE70198006834
:105630000299884205D2FFE7FFE7019800680190D0
:10564000F4E701980090009801994968084402998C
:10565000884209D1FFE70298406801994A681044DE
:1056600048600198029000E0FFE7029800900098DF
:1056700002994968084401990968884220D1FFE7E6
:105680000198006840F25041C2F200010968884266
:105690000DD0FFE701980068406802994A681044FD
:1056A00048600198006800680299086007E040F2CD
:1056B0005040C2F20000006802990860FFE704E071
:1056C0000198006802990860FFE7019802998842F2
:1056D00004D0FFE702980199086000E0FFE703B0FB
:1056E0007047000008480068006880F308884FF0A1
:1056F000000080F3148862B661B6BFF34F8FBFF32A
:105700006F8F00DF00BF00BF08ED00E081B040F206
:105710004C40C2F2000000680068002808D1FFE792
:1057200044F67440C2F200004FF0FF3101600FE018
:1057300040F24C40C2F200000068C068C0680090AF
:105740000098406844F67441C2F200010860FFE727
:1057500001B0704783B00020009040F21000C2F208
:1057600000000068013000280BD0FFE74FF0500028
:1057700080F31188BFF36F8FBFF34F8F0190FFE766
:10578000FEE74FF0500080F31188BFF36F8FBFF337
:105790004F8F0290FFE70098002801D1FFE7FAE75A
:1057A00003B0704780B58AB006900020029000F0E8
:1057B000BBFE40F25040C2F200000068002803D156
:1057C000FFE7FFF7DBFD00E0FFE7069844F6E8118E
:1057D000C2F200010968084240F0CA80FFE706985B
:1057E000002822D0FFE70698083006909DF81800A0
:1057F0004007002817D0FFE7069820F00700083080
:1058000006909DF81800400700280BD0FFE74FF0E6
:10581000500080F31188BFF36F8FBFF34F8F079055
:10582000FFE7FEE700E0FFE700E0FFE7069800285B
:1058300000F09C80FFE7069844F61421C2F20001B4
:105840000968884200F29280FFE744F6A040C2F265
:105850000000049000680590FFE7059840680699ED
:1058600000228842019207D2FFE7059800680028CD
:1058700018BF01200190FFE70198C007002806D05B
:10588000FFE705980490059800680590E5E70598FE
:1058900040F25041C2F200010968884264D0FFE73B
:1058A0000498006808300290059800680499086020
:1058B000059840680699401A112822D3FFE70598F9
:1058C0000699084403909DF80C00400700280BD06F
:1058D000FFE74FF0500080F31188BFF36F8FBFF3E5
:1058E0004F8F0890FFE7FEE7059840680699401A39
:1058F000039948600698059948600398FFF78EFE63
:1059000000E0FFE70598406844F61421C2F2000168
:105910000A68101A0860086844F67041C2F2000173
:10592000096888420BD2FFE744F61420C2F2000057
:10593000006844F67041C2F20001086000E0FFE731
:1059400044F6E810C2F20000006805994A68104366
:10595000486005980021016044F67C40C2F20000D6
:1059600001680131016000E0FFE700E0FFE700E0CF
:10597000FFE701F003F99DF80810490700290BD053
:10598000FFE74FF0500080F31188BFF36F8FBFF334
:105990004F8F0990FFE7FEE702980AB080BD000034
:1059A00083B002900191009202980438029002980C
:1059B0004FF080710160029804380290019820F045
:1059C000010002990860029804380290029845F29A
:1059D0005571C0F6000101600298143802900098D9
:1059E0000299086002980438029002986FF0020150
:1059F0000160029820380290029803B070470000BE
:105A000080B584B003900020ADF80A008DF809003D
:105A10000398017940F6FC02C2F20002117100689D
:105A200010609DF8090005308DF8090003989DF875
:105A30000910405AADF80A009DF8090002308DF8AF
:105A40000900BDF80A0001460128019176D0FFE760
:105A50000198022800F08380FFE70198032800F0F6
:105A60008880FFE740F201100199814200F08D80AB
:105A7000FFE70198B0F5817F00F09180FFE740F2E9
:105A800003100199814200F09480FFE70198B0F57E
:105A9000827F00F09B80FFE740F205100199814270
:105AA00000F09E80FFE740F201200199814200F062
:105AB000A180FFE740F202200199814200F0A68018
:105AC000FFE740F203200199814200F0B080FFE738
:105AD0000198B0F5017F00F0BB80FFE740F20520A0
