:020000040800F2
:10000000C09700209D010008A96B00080564000846
:10001000156B0008E5090008D9A6000800000000DB
:10002000000000000000000000000000F174000863
:10003000E12900080000000021700008297500086F
:10004000B7010008B7010008B7010008B7010008B0
:10005000B7010008B7010008B7010008B7010008A0
:10006000B7010008B7010008B7010008B701000890
:10007000B7010008B7010008B7010008B701000880
:10008000B7010008B7010008B7010008B701000870
:10009000E9090008B7010008B7010008B701000826
:1000A000B7010008B7010008B7010008B701000850
:1000B000B7010008B7010008B7010008B701000840
:1000C000B7010008B7010008B7010008B701000830
:1000D000B7010008B1A50008B7010008B701000882
:1000E000B7010008B7010008B7010008B701000810
:1000F000B7010008B7010008B7010008B701000800
:10010000B7010008B7010008B7010008B7010008EF
:10011000B7010008B7010008B70100083D760008E4
:10012000B70100085128000861280008B70100083D
:10013000B7010008B7010008B7010008B7010008BF
:10014000F9090008B7010008B7010008B701000865
:10015000B70100087128000881280008B7010008CD
:10016000B7010008B7010008B7010008B70100088F
:10017000B7010008B7010008B7010008000000003F
:10018000B7010008B7010008DFF80CD000F064FBED
:1001900000480047D1AC0008C097002006488047BF
:1001A00006480047FEE7FEE7FEE7FEE7FEE7FEE75C
:1001B000FEE7FEE7FEE7FEE7297600088901000872
:1001C0002DE9F05F0546002092469B46884606468C
:1001D000814640241BE0284641464746224600F01F
:1001E00025FA53465A46C01A914110D31146184673
:1001F000224600F00CFA2D1A67EB01084F46224602
:100200000120002100F003FA17EB00094E41201EE7
:10021000A4F10104DFDC484631462A464346BDE8E6
:10022000F09F40EA01039B0703D009E008C9121FB1
:1002300008C0042AFAD203E011F8013B00F8013BA0
:10024000521EF9D27047D2B201E000F8012B491ECC
:10025000FBD270470022F6E710B513460A46044663
:100260001946FFF7F0FF204610BD2DE9FE4F8046EE
:1002700081EA0300C00F0C46009021F0004123F0FA
:100280000045B8EB0200A94105D240462146904600
:100290001C460B46024623F00040104347D0270D72
:1002A000C7F30A00C3F30A510290401A0190402894
:1002B0006BDAC3F3130040F4801B0098924620B120
:1002C0000023D2EB030A63EB0B0B01985946C0F1F4
:1002D0004002504600F09BF906460D4650465946EE
:1002E000019A00F0B3F910EB08006141002487EA9D
:1002F000115284EAE7731A4340D0009A62B3019A1C
:10030000012A4FEA075215DC001B61EB02014FF096
:10031000004202EA0752CDE90042001C41F580117B
:1003200032462B4600F0EAF903B0BDE8F08F4046B4
:100330002146F9E7001B61EB0201001C41F5801327
:1003400000185B412018A2F5001747EB030140EAB3
:10035000D570B6196D4111E06D084FEA360645EAD1
:10036000C0754FEA0752001B61EB0201001C41F50A
:10037000801149084FEA30000019514132462B469E
:1003800003B0BDE8F04F00F0AAB900980122400088
:100390000023D0EB020263EBE073009821464FEAA2
:1003A000E074B8EB000061EB0401E9E783F000437F
:1003B0005BE781F0004158E72DE9FE4F81EA030435
:1003C00004F0004421F0004100944FF0000B23F0B2
:1003D000004350EA01045ED052EA03045BD0C3F349
:1003E0000A54C1F30A552C44A4F2F3340194A0FB3F
:1003F0000254C1F3130141F48011C3F3130343F416
:10040000801301FB024400FB034E840A970A44EA6E
:10041000815447EA8357A4FB076802958D0A05FBC0
:1004200007854FEA932C04FB0C542705029D4FEAE5
:10043000065847EA1637B5EB08056EEB070C870E32
:10044000920E47EA811742EA8312A7FB0201B6EB3C
:100450000B0164EB00042B0D43EA0C335E1844EBF4
:100460001C50DA465146E7FB0201C5F313044FEA7C
:100470000B3343EA14534FEA0432019C43EA060368
:10048000A4F10C040294009CCDE900B400F036F90C
:1004900003B0BDE8F08F00200146F9E72DE9F04DEB
:1004A00081EA030404F0004B21F0004514464FF0AC
:1004B000000A23F0004150EA050220D054EA01026C
:1004C0001DD0C5F30A570246C5F31303C1F3130049
:1004D000C1F30A5640F4801543F48013A7EB0608D5
:1004E000101BD64608F2FD3873EB050002D308F165
:1004F000010801E092185B41B8F1000F03DA002017
:100500000146BDE8F08D00204FF480110646844678
:100510000EE0171B73EB050705D3121B63EB0503F6
:1005200006434CEA010C49084FEA300092185B413F
:1005300050EA0107EDD152EA030012D082EA04002A
:1005400083EA0501084305D0101BAB4106D2012206
:10055000002306E000224FF0004302E06FF00102AA
:1005600053101AEB06004CEB085110EB0A0041EB5C
:100570000B01BDE8F04D00F0B2B830B5041E71F1CA
:10058000000404DB4FF00044404264EB0101141E00
:1005900073F1000405DB1C464FF00043524263EB4D
:1005A0000403801A994101D2012030BD002030BDE2
:1005B00000F0004230F000400AD0C10D01F560713A
:1005C000C0F3160042EA0151C208400711437047C8
:1005D00000200146704701F0004330B421F0004193
:1005E00050EA010206D00A0DA2F56072C1F31301B0
:1005F000002A02DC30BC00207047440F44EAC104EA
:10060000C100E01830BC00EBC25000F031B8202A25
:1006100004DB203A00FA02F1002070479140C2F159
:10062000200320FA03F3194390407047202A04DB8B
:10063000203A21FA02F00021704721FA02F3D0405B
:10064000C2F120029140084319467047202A06DB78
:10065000CB17203A41FA02F043EAE07306E041FA90
:1006600002F3D040C2F1200291400843194670477E
:100670000029A8BF7047401C490008BF20F00100B6
:10068000704710B4B0FA80FC00FA0CF050EA010494
:1006900004BF10BC704749B1CCF1200421FA04F426
:1006A00011FA0CF118BF012121430843A3EB0C01FF
:1006B000CB1D4FEA00614FEA102042BF002010BC62
:1006C000704700EBC35010440029A4BF10BC704712
:1006D000401C490008BF20F0010010BC704710B555
:1006E000141E73F1000408DA401C41F10001921855
:1006F0005B411A4301D120F0010010BD2DE9F04DFE
:1007000092469B4611B1B1FA81F202E0B0FA80F252
:1007100020329046FFF77BFF04460F4640EA0A006E
:1007200041EA0B0153465A46084313D0114653EA97
:10073000010019D0C8F140025046FFF777FF054687
:100740000E46504659464246FFF761FF084305D022
:10075000012004E020463946BDE8F08D0020054325
:1007600046EAE0762C4337430A986305E40AA0EB97
:1007700008000022FD0A44EA47540A3002D500204E
:100780000146E9E7010510196941DDE9084500194D
:100790006941BDE8F04DA2E70EB5C10F80EAE070F7
:1007A0000844CA07002140F233438DE80E000A4690
:1007B0000B46FFF7A3FF03B000BD70B5C1F30A52AB
:1007C00001F000450024C1F3130140F2FF3341F46E
:1007D00080119A4201DA002070BD40F233439A4200
:1007E000A2F2334203DC5242FFF720FF00E09040C8
:1007F0002C43F1D0404270BD30B5041E71F10004AD
:1008000004DB4FF00044404264EB0101141E73F11D
:10081000000405DB1C464FF00043524263EB040327
:100820008B4208BF824230BD30B5041E71F1000416
:1008300004DB4FF00044404264EB0101141E73F1ED
:10084000000405DB1C464FF00043524263EB0403F7
:10085000994208BF904230BD064C074D06E0E06863
:1008600040F0010394E8070098471034AC42F6D3F7
:10087000FFF78EFC9CE50008BCE500080EB540F2D1
:10088000334102910021CDE900110A460B46FFF7E2
:1008900035FF03B000BD000080B588B007908DED36
:1008A000060A069807994860079890ED010A90EDAE
:1008B000021A30EE410A80ED030A079890ED030A10
:1008C000B5EE400AF1EE10FA30DBFFE70798C0689A
:1008D000FFF76EFE41EC100B9FED371B53EC112B15
:1008E00051EC100B05900491FFF766FD41EC100BE5
:1008F0000CF036FB53EC102B05980499FFF7CEFD56
:1009000041EC100B51EC100BFFF765FE07990861E5
:10091000079890ED000A90ED021A90ED042A82EEFD
:10092000000A31EE000A80ED020A3EE00798C06836
:10093000FFF73EFE41EC100B9FED1D1B51EC110B20
:10094000C90F53EC102B61F3DF7343EC102B9FEDB9
:100950001A1B53EC112B5CEC101B03900846029100
:100960006146CDF804C0FFF727FD41EC100B0CF0F9
:10097000F7FA53EC102B02980199FFF78FFD41EC29
:10098000100B51EC100BFFF726FE07990861079832
:1009900090ED000A90ED021A90ED042A82EE000A12
:1009A00031EE400A80ED020AFFE708B080BD00BFCB
:1009B0000000000000000000666666666666E63FAE
:1009C00082B001908DED000A0098019908600198AD
:1009D00000214160019881600198C1600198016126
:1009E00002B07047FFE7FEE780B540F6DC30C2F2A8
:1009F000000002F0FFFC80BD80B540F60440C2F26A
:100A0000000002F0F7FC80BD40F22C50C2F2000062
:100A10000168006A081A00280ED1FFE740F22C5046
:100A2000C2F20000002180F8401040F28450C2F26F
:100A30000000012101700DE040F22C50C2F20000D4
:100A4000152180F8401040F28450C2F200000021CD
:100A50000170FFE740F22C50C2F200000168016211
:100A60007047000040F22C50C2F200004168406A1A
:100A7000081A002815D1FFE740F28450C2F20000A6
:100A8000007800280DD1FFE740F22C50C2F20000A0
:100A9000012180F8401040F28450C2F20000017041
:100AA00010E040F28450C2F200000078002808D123
:100AB000FFE740F22C50C2F20000152180F84010F0
:100AC000FFE7FFE740F22C50C2F2000041684162AC
:100AD0007047000040F22C50C2F200008168806A2A
:100AE000081A002816D1FFE740F28450C2F2000035
:100AF000007800280ED1FFE740F22C50C2F200002F
:100B0000022180F8401040F28450C2F2000001211E
:100B1000017010E040F28450C2F20000007800281A
:100B200008D1FFE740F22C50C2F20000152180F8F6
:100B30004010FFE7FFE740F22C50C2F2000081684E
:100B40008162704780B586B00A460346ADF816004C
:100B50008DF8151040F64030C2F200004FF40471D9
:100B600040F8181F00218160C160032101619DF8D8
:100B7000171040F6183CC2F2000C0CF8081F9DF844
:100B800016108CF801109DF815108CF8021040F624
:100B9000DC31C2F200010DF1100E039008460399FA
:100BA000029262460193734602F08CF906B080BD52
:100BB00040F2BC10C2F20000B0F90400B0F5966F2C
:100BC00008DBFFE740F2BC10C2F20000007800280A
:100BD00008D1FFE740F67830C2F200000168013129
:100BE000016006E040F67830C2F2000000210160AA
:100BF000FFE740F67830C2F200000068C92807D34A
:100C0000FFE740F2BC10C2F2000000214170FFE794
:100C10007047000080B584B00390FFE740F28C601D
:100C2000C2F2000000F5057140F22152C2F200024A
:100C300006F028FA012816D1FFE740F22150C2F24F
:100C400000000188090409BA019181788DF80B1020
:100C500001999DF80B20C31C40F6DC30C2F2000065
:100C600000F006F8FFE701200AF068F8D6E7000078
:100C700080B586B09446059004918DF80F200293BC
:100C8000049840F62831C2F2000108600020886014
:100C9000C8609DF80F0008610598029A01ABCDF875
:100CA00000C002F00FF906B080BD00002DE9F04150
:100CB00086B0DDF848C0DDF844E0109C0F9D0E9E24
:100CC0000D9FDDF83080059004910392029300207F
:100CD0000190FFE7019800210228009108DCFFE75E
:100CE00004980199405C002818BF01200090FFE79C
:100CF0000098C00700280BD0FFE704980199405CDA
:100D0000059A511A8870FFE7019801300190E1E7D8
:100D10000598D0F80310D0F80720D0F80B3041F038
:100D20003801C0F80720C0F80310C0F80B30039852
:100D30000599D1F80320D1F80730D1F80BC060F342
:100D40000202C1F80730C1F80320C1F80BC00298B5
:100D50000599D1F80320D1F80730D1F80BC000F085
:100D60000F0022F4707242EA8010C1F80730C1F817
:100D70000300C1F80BC00C980599D1F80320D1F8F5
:100D80000730D1F80BC000F00F0022F4705242EA95
:100D90008020C1F80730C1F80300C1F80BC00F98DC
:100DA0000599D1F80320D1F80730D1F80BC060F3D2
:100DB0000903C1F80320C1F80730C1F80BC010982F
:100DC0000599D1F80320D1F80730D1F80BC06FF3A3
:100DD000DF206FF3942343EA8020C1F80320C1F899
:100DE0000700C1F80BC011980599D1F80320D1F87C
:100DF0000730D1F80BC06FF35F5343EA4050C1F89E
:100E00000320C1F80700C1F80BC00D980599D1F86F
:100E10000320D1F80730D1F80BC06FF35F206FF3D8
:100E2000963242EA8030C1F80730C1F80300C1F8B9
:100E30000BC00E980599D1F80320D1F80730D1F8EE
:100E40000BC06FF3DF5242EAC050C1F80730C1F85F
:100E50000300C1F80BC000200190FFE701980E9934
:100E600088420ED2FFE7129800780599019A114442
:100E7000C873129801301290FFE701980130019079
:100E8000ECE706B0BDE8F0812DE9F04FB7B0DDF832
:100E90001CC1DDF818E1459C449D439E429FDDF84E
:100EA0000481DDF800919A4693460B910A90CDF8A3
:100EB000A8C0CDF8A4E02894279526962597CDF8CC
:100EC0009080CDF88C90229321920B9A20920A9BCD
:100ED0001F930DF1AC0C0DF17C0E2D240990604692
:100EE000089171462246CDF81CA0CDF818B0CDF877
:100EF00014C00494FFF795F94FF6FF71ADF8421056
:100F000012A9039008460599049AFFF78AF90EA9D9
:100F10001191A5218DF838103321ADF8391040F624
:100F2000BC21C2F2000109788DF83B10119904220E
:100F3000FF230290084611461A4601F075FF8DF80E
:100F40003C0040F20130ADF83D004FF48870ADF840
:100F5000300041F23440C2F200000078012808D18C
:100F6000FFE70120ADF8320040F20110ADF8340087
:100F700076E041F23440C2F200000078652808D1E2
:100F8000FFE76520ADF8320040F26510ADF834009F
:100F900065E041F23440C2F200000078032808D135
:100FA000FFE70320ADF8320040F20310ADF8340043
:100FB00054E041F23440C2F200000078672808D1C2
:100FC000FFE76720ADF8320040F26710ADF834005B
:100FD00043E041F23440C2F200000078042808D116
:100FE000FFE70420ADF832004FF48270ADF8340012
:100FF00032E041F23440C2F200000078682808D1A3
:10100000FFE76820ADF832004FF4B470ADF834005B
:1010100021E041F23440C2F200000078052808D1F6
:10102000FFE70520ADF8320040F20510ADF83400BE
:1010300010E041F23440C2F200000078692808D183
:10104000FFE76920ADF8320040F26910ADF83400D6
:10105000FFE7FFE7FFE7FFE7FFE7FFE7FFE7FFE760
:101060000EA811901199BDF842200723019008465F
:10107000194601F0A3FEADF842000CA8119011989A
:10108000BDF84220062101F099FEADF8420012A8F9
:1010900011901198BDF842202D2101F08FFEADF87E
:1010A00042000198119000211E91FFE71E9806282A
:1010B0000CD8FFE71198007809F064FA1198013014
:1010C0001190FFE71E9801301E90EFE70CA81190D9
:1010D00000201E90FFE71E9805280CD8FFE7119806
:1010E000007809F04FFA119801301190FFE71E982F
:1010F00001301E90EFE712A8119000201E90FFE72C
:101100001E982C280CD8FFE71198007809F03AFABD
:10111000119801301190FFE71E9801301E90EFE703
:101120000DF14200119000201E90FFE71E9801284B
:101130000CD8FFE71198007809F024FA11980130D3
:101140001190FFE71E9801301E90EFE740F6BC209B
:10115000C2F20000017801310170002037B0BDE813
:10116000F08F000080B586B040F24020C2F200004F
:10117000007D002817D1FFE700200590FFE70598C4
:1011800003280FDCFFE7059840F24021C2F200017E
:1011900001EB80000021C0F88C11FFE705980130B9
:1011A0000590ECE7BDE040F24020C2F20000007D77
:1011B00001283DD1FFE740F24020C2F200000021AB
:1011C000C0F8A811C0F8A411C0F8A011C0F89C1173
:1011D0000491FFE70498032829DCFFE7049800EB5B
:1011E000C00140F24022C2F2000202EBC1012431F0
:1011F00002EB800352F82000B0F9020000EE100A62
:10120000B8EEC00A9FED481A20EE010AD3ED670A36
:101210000846029205F002FD0498029901EB800055
:1012200080ED630AFFE7049801300490D2E777E08D
:1012300040F24020C2F20000007D022808D0FFE703
:1012400040F24020C2F20000007D032867D1FFE792
:1012500040F24020C2F2000090ED060A90ED071A1D
:1012600090ED082AB1EE400A30EE410A30EE020A53
:1012700080ED670A90ED060A90ED071A90ED082AB6
:1012800030EE410A30EE020A80ED680A90ED060A5F
:1012900090ED071A90ED082A30EE010A30EE020AAE
:1012A00080ED690A90ED060A90ED071A90ED082A84
:1012B00031EE400A32EE000A80ED6A0A0020039007
:1012C000FFE70398032829DCFFE7039800EBC00140
:1012D00040F24022C2F2000202EBC101243102EBD3
:1012E000800352F82000B0F9020000EE100AB8EEB8
:1012F000C00A9FED0D1A20EE010AD3ED670A0846D9
:10130000019205F08BFC0398019901EB800080EDC0
:10131000630AFFE7039801300390D2E7FFE7FFE796
:10132000FFE706B080BD00BF0A01DA3980B541F29F
:101330003440C2F20000008B40F6D461C2F20001DA
:101340000880B1F90000002807D1FFE740F6D4601B
:10135000C2F2000032210180FFE7FFF729FC80BDC7
:1013600080B586B000200590FFE70598032834DC9F
:10137000FFE7059840F24021C2F2000101EB800036
:101380000022C0F88C21059801EB8000C0F89C2158
:101390009DF814000491039201F0FAFC0599049A57
:1013A00042F82100059800EBC00102EBC101243195
:1013B00000EB400040F22403C2F2000303EB800282
:1013C0009FED2D0ADFED2D0A0846039905F0E4FD97
:1013D000FFE7059801300590C7E701F0E9FC40F20E
:1013E0004021C2F20001086101F5A27040F218022A
:1013F000C2F200020023B0EE080AF7EE000A0291E2
:101400001946019305F0C8FD01980299087540F24C
:101410002C10C2F200009FED160A8DED000AFFF7B6
:10142000CFFA40F24010C2F200009DED000AFFF733
:10143000C7FA40F21810C2F200009FED0E0AFFF743
:10144000BFFA40F2BC10C2F2000001990170417075
:1014500001728180C180418041F23440C2F20000BB
:10146000008B40F6D462C2F20002108006B080BD4C
:10147000000016430000FA4300B07E4600409C4541
:1014800080B500F003F800F017F880BD40F6C460A6
:10149000C2F20000018900EE101AB8EE400A40F6D0
:1014A0007431C2F2000181ED000A406840F67031EB
:1014B000C2F200010860704780B58EB040F674300B
:1014C000C2F2000090ED000A40F25400C2F20000A7
:1014D00090ED001AB4EE410AF1EE10FA17DAFFE7C8
:1014E00040F67430C2F2000090ED000A40F2540061
:1014F000C2F2000090ED001A80EE010A20EE010A0F
:1015000040F67470C2F2000080ED000A0FE041F274
:101510003440C2F20000008B00EE100AB8EE400A20
:1015200040F67470C2F2000080ED000AFFE741F25D
:10153000A840C2F20000002101600D91FFE70D9864
:1015400003285CD8FFE70D9840F24021C2F2000169
:1015500001EB800292ED630A51F82000B0F902001D
:1015600001EE100AB8EEC11A20EE010A10EE100AC0
:10157000FFF71EF841EC100B51EC100B9FEDDE0B4A
:1015800053EC102BDB0F63F3DF7141EC100B40F2D7
:101590005800C2F2000000680B928DED080BFFF7B7
:1015A00007F841EC100B9DED081B51EC110B53ECAF
:1015B000102BFEF701FF41EC100B41F2A840C2F2E4
:1015C00000000168079008468DED040BFEF7F0FF60
:1015D00041EC100B9DED041B53EC112B51EC100B47
:1015E000FEF743FE41EC100B51EC100BFEF7F3FF3E
:1015F00007990860FFE70D9801300D909FE740F6CE
:101600007470C2F2000090ED000A40F67031C2F230
:10161000000191ED001A30EE410A9FEDD11A20EE43
:10162000010ABDEEC00A10EE102A40F2BC13C2F24D
:101630000003DA8091ED000A90ED001A80EE010AB5
:1016400010EE100AFEF7B4FF41EC100B51EC100B3A
:101650009FEDBB0B53EC102BFEF78FFF00280ED134
:10166000FFE740F67430C2F2000090ED000A9FEDF3
:10167000BD1AB4EE410AF1EE10FA07DAFFE740F2C4
:10168000BC10C2F200000021C180FFE740F2BC1094
:10169000C2F20000407801280FD1FFE741F2344048
:1016A000C2F20000008B64214843A0F57A7040F23A
:1016B000BC11C2F20001C880FFE740F2BC10C2F2C8
:1016C0000000B0F90600B0F1FF3F07DCFFE740F291
:1016D000BC10C2F200000021C180FFE740F2BC1044
:1016E000C2F200000078002809D0FFE740F2BC10E9
:1016F000C2F200004078002840F01C81FFE741F270
:10170000A840C2F2000090ED000A40F67470C2F2E8
:10171000000090ED001AB4EE410AF1EE10FA40F329
:101720000881FFE740F67470C2F2000090ED000AF5
:1017300041F2A840C2F2000090ED001A80EE010ACA
:1017400040F21000C2F2000080ED000A40F240209A
:10175000C2F20000007D032867D1FFE740F21B6062
:10176000C2F20000B0F9010000285ED1FFE740F2AC
:101770001B60C2F20000B0F90300002855D1FFE75A
:1017800040F6D460C2F20000B0F90000592825DC10
:10179000FFE740F6D460C2F20000B0F900003B2839
:1017A0001CDBFFE740F21000C2F20000016803906A
:1017B0000846FEF7FDFE41EC100B9FED651B53EC58
:1017C000112B51EC100BFEF7F7FD41EC100B51EC17
:1017D000100BFEF700FF0399086025E040F6D46087
:1017E000C2F20000B0F900005B281CDBFFE740F20A
:1017F0001000C2F20000016802900846FEF7D8FE11
:1018000041EC100B9FED541B53EC112B51EC100BC2
:10181000FEF7D2FD41EC100B51EC100BFEF7DBFE96
:1018200002990860FFE7FFE75DE040F24020C2F266
:101830000000007D032855D1FFE740F6D460C2F2D6
:101840000000B0F90000592825DCFFE740F6D4601D
:10185000C2F20000B0F900003B281CDBFFE740F2B9
:101860001000C2F20000016801900846FEF7A0FED9
:1018700041EC100B9FED361B53EC112B51EC100B70
:10188000FEF79AFD41EC100B51EC100BFEF7A3FE96
:101890000199086025E040F6D460C2F20000B0F97A
:1018A00000005B281CDBFFE740F21000C2F20000E2
:1018B000016800900846FEF77BFE41EC100B9FED9F
:1018C000221B53EC112B51EC100BFEF775FD41EC74
:1018D000100B51EC100BFEF77EFE00990860FFE73D
:1018E000FFE7FFE7FFE700200C90FFE70C980328D5
:1018F0001ED805E000BF00BF00000000000000008F
:1019000040F21000C2F2000090ED000A0C9840F284
:101910004021C2F2000101EB800090ED631A21EE3C
:10192000000A80ED630AFFE70C9801300C90DDE7B8
:10193000FFE700E0FFE70EB080BD00BF00BF00BFC3
:101940009A9999999999E93F9A9999999999F93F09
:10195000333333333333F33F666666666666F63F8A
:101960000000C8420000204281B040F21B60C2F279
:101970000000407901460128009120D0FFE700983F
:10198000062831D0FFE700980A2826D0FFE7009804
:1019900012281BD0FFE7009842282CD0FFE70098C0
:1019A000862821D0FFE700988A2816D0FFE7009804
:1019B00092280BD0FFE70098B2281CD022E040F21A
:1019C0004020C2F20000002101751CE040F24020DE
:1019D000C2F200000321017515E040F24020C2F27E
:1019E0000000022101750EE040F24020C2F200002A
:1019F0000121017507E040F24020C2F200000421FD
:101A0000017500E0FFE701B07047000080B582B0CB
:101A10000190FFF7A5FCFFE740F2CC10C2F20000F6
:101A2000016801310160FFF79FFFFFF77FFC00F0C5
:101A300009FE40F2BC10C2F200004078002803D139
:101A4000FFE700F035F802E000F02AFBFFE7FFF7C0
:101A500089FBFFF715FD40F24020C2F2000090ED37
:101A6000630A90ED641A90ED652A90ED663ABDEE3A
:101A7000C00A10EE100ABDEEC10A10EE101ABDEE3B
:101A8000C20A10EE102ABDEEC30A10EE103A05F09D
:101A900043F840F2BC10C2F20000C188007A009006
:101AA00008460099FFF74EF8012009F047F9B3E71F
:101AB00080B59EB040F24020C2F20000007D0328B5
:101AC00040F08280FFE740F27C50C2F200009FEDC0
:101AD000930A8DED1D0ADDED1D0A9DED1D1ADDED4C
:101AE0001D1A9DED1D2ADDED1D2A9DED1D3A05F007
:101AF00075FC40F6D460C2F20000B0F900002D3849
:101B0000014637281C9100F255801C99DFE801F04E
:101B10001C5252525225525252522E525252523747
:101B20005252525252525252525252525252525295
:101B30005252524052525252525252525252525297
:101B40005252525252525249B6EE000ADFED740A16
:101B50009FED741A05F09CFC35E09FED730ADFEDF4
:101B6000730A9FED731A05F093FC2CE09FED6E0A4B
:101B7000DFED700A9FED6A1A05F08AFC23E09FED05
:101B80006A0ADFED6D0A9FED6D1A05F081FC1AE01F
:101B90009FED640ADFED6A0AB7EE001A05F078FCE3
:101BA00011E09FED600AF7EE080A9FED661A05F056
:101BB0006FFC08E0B6EE000ADFED590A9FED591AF6
:101BC00005F066FCFFE712E140F24020C2F200009F
:101BD000007D022809D0FFE740F24020C2F2000059
:101BE000007D012840F0D680FFE740F21B60C2F282
:101BF0000000B0F90100012817DBFFE740F27C503C
:101C0000C2F200009FED450A8DED1B0ADDED1B0AB7
:101C10009DED1B1ADDED1B1A9DED1B2ADDED1B2A28
:101C20009DED1B3A05F0DAFB16E040F27C50C2F263
:101C300000009FED3A0A8DED1A0ADDED1A0A9DEDBE
:101C40001A1ADDED1A1A9DED1A2ADDED1A2A9DEDFC
:101C50001A3A05F0C3FBFFE740F6D460C2F2000079
:101C6000B0F900002D3801463728199100F26C8038
:101C70001999DFE801F01C69696969256969696971
:101C80002E69696969376969696969696969696931
:101C900069696969696969696940696969696969DD
:101CA00069696969696969696969696969499FED0A
:101CB000F60A9FEDF31AF0EE410A05F0E9FB4CE05D
:101CC000B7EE080A9FEDEE1AF0EE410A05F0E0FBD0
:101CD00043E09FEDEC0A9FEDEA1AF0EE410A05F0B1
:101CE000D7FB3AE0B0EE000A9FEDE51AF0EE410AAC
:101CF00005F0CEFB31E0B0EE040A9FEDE11AF0EE04
:101D0000410A05F0C5FB28E0B0EE080A9FEDDC1A99
:101D1000F0EE410A05F0BCFB1FE000BF0000000030
:101D20006666663FCDCC4C3F9A99193F8FC2753F8E
:101D3000A4703D3F0AD7833F3333933FEC51783F44
:101D40006666A63FCDCC8C3F9FEDCF0A9FEDCC1AA7
:101D5000F0EE410A05F09CFBFFE740F24020C2F2A2
:101D60000000016991ED030A9FEDC81A30EE010AE7
:101D700018900AF06BF9B2EE041A20EE010A1898D6
:101D800000F5A270DFEDBE0A04F048FF189880ED60
:101D9000080A2BE040F24020C2F20000007D042837
:101DA00023D1FFE741F2A440C2F2000090ED000A07
:101DB00040F27C50C2F200009FEDB11AF0EE410AF1
:101DC0008DED171ADDED171A9DED172ADDED172A97
:101DD0009DED173A05F002FBB6EE000ADDED170A9D
:101DE0009DED171A05F054FBFFE7FFE7FFE740F210
:101DF0004020C2F20000016991ED030A9FEDA41A90
:101E000031EE400A40F27C51C2F2000191ED001A1D
:101E100030EE010A40F68831C2F2000181ED000A7D
:101E200040F21B62C2F20002B2F9013000EE103A39
:101E3000B8EEC00A9FED971A80EE010A40F22C130B
:101E4000C2F2000316901846159114928DED131AE4
:101E50001293FEF721FD1498B0F90310494200EEE9
:101E6000101AB8EEC00A9DED131A80EE010A40F276
:101E70004011C2F2000108461191FEF70DFD1498C1
:101E8000B0F9011000EE101AB8EEC00A9DED131A59
:101E900080EE010A129981ED020AB0F90320524244
:101EA00000EE102AB8EEC00A80EE010A119A82ED07
:101EB000020A8868FEF77CFB41EC100B159890ED48
:101EC000001A9FED752A81EE021A11EE100A8DEDAF
:101ED0000E0B8DED0D2AFEF76BFB41EC100B51EC58
:101EE000100B9FED650B53EC102B0C920B93FEF730
:101EF00063FA41EC100B0AF0CFFF53EC102B9DED71
:101F00000E0B51EC100BFEF757FA41EC100B119829
:101F100080688DED080BFEF74BFB41EC100B15981C
:101F200090ED001A9DED0D2A81EE021A11EE100AB5
:101F30008DED060BFEF73CFB41EC100B51EC100B4A
:101F40000C9A0B9BFEF738FA41EC100B0BF0B4F92E
:101F500053EC102B9DED060B51EC100BFEF72CFAF9
:101F600041EC100B9DED081B53EC112B51EC100BA9
:101F7000FEF71CFA41EC100B51EC100BFEF72BFB9B
:101F80001699886112988068FEF712FB41EC100BDD
:101F9000159890ED001A9DED0D2A81EE021A11EEB2
:101FA000100A8DED040BFEF703FB41EC100B51EC16
:101FB000100B0C9A0B9BFEF7FFF941EC100B0BF08A
:101FC0007BF953EC102B9DED040B51EC100BFEF73D
:101FD000F3F941EC100B119880688DED020BFEF7C0
:101FE000E7FA41EC100B159890ED001A9DED0D2AC3
:101FF00081EE021A11EE100A8DED000BFEF7D8FAF1
:1020000041EC100B51EC100B0C9A0B9BFEF7D4F922
:1020100041EC100B0AF040FF53EC102B9DED000B30
:1020200051EC100BFEF7C8F941EC100B9DED021BB3
:1020300051EC110B53EC102BFEF717F941EC100B80
:1020400051EC100BFEF7C7FA1699C86141F25440E3
:10205000C2F2000090ED000A91ED061A21EE000A8E
:1020600081ED060A90ED000A91ED071A21EE000AB3
:1020700081ED070A1EB080BDF1D4C853FB21094091
:10208000000000006666C63F3333B33F00001E43C6
:1020900000001EC300FEFF460000344300000000A5
:1020A00080B59EB040F24020C2F20000007D0328BF
:1020B00040F08280FFE740F27C50C2F200009FEDCA
:1020C000930A8DED1D0ADDED1D0A9DED1D1ADDED56
:1020D0001D1A9DED1D2ADDED1D2A9DED1D3A05F011
:1020E0007DF940F6D460C2F20000B0F900002D384E
:1020F000014637281C9100F255801C99DFE801F059
:102100001C5252525225525252522E525252523751
:10211000525252525252525252525252525252529F
:1021200052525240525252525252525252525252A1
:102130005252525252525249B0EE080A9FED731A4F
:10214000F0EE410A05F0A4F935E0B7EE000AF0EE32
:10215000000A9FED6F1A05F09BF92CE0B0EE080A1B
:102160009FED6A1AF0EE410A05F092F923E0B7EE0E
:10217000000AF0EE000A9FED671A05F089F91AE0EF
:10218000B7EE000AF0EE000A9FED631A05F080F941
:1021900011E09FED600ADFED610A9FED611A05F025
:1021A00077F908E0B0EE080A9FED581AF0EE410A00
:1021B00005F06EF9FFE708E140F24020C2F20000AE
:1021C000007D022809D0FFE740F24020C2F2000063
:1021D000007D012840F0CC80FFE740F21B60C2F296
:1021E0000000B0F90100012817DBFFE740F27C5046
:1021F000C2F200009FED450A8DED1B0ADDED1B0AC2
:102200009DED1B1ADDED1B1A9DED1B2ADDED1B2A32
:102210009DED1B3A05F0E2F816E040F27C50C2F268
:1022200000009FED3A0A8DED1A0ADDED1A0A9DEDC8
:102230001A1ADDED1A1A9DED1A2ADDED1A2A9DED06
:102240001A3A05F0CBF8FFE740F6D460C2F200007E
:10225000B0F900002D3801463728199100F262804C
:102260001999DFE801F01C5F5F5F5F255F5F5F5FCB
:102270002E5F5F5F5F375F5F5F5F5F5F5F5F5F5FC7
:102280005F5F5F5F5F5F5F5F5F405F5F5F5F5F5F7D
:102290005F5F5F5F5F5F5F5F5F5F5F5F5F49B0EE84
:1022A000080A9FEDE31AF0EE410A05F0F1F842E06A
:1022B000B0EE080A9FEDDE1AF0EE410A05F0E8F8EC
:1022C00039E0B0EE080A9FEDDA1AF0EE410A05F0A7
:1022D000DFF830E0B0EE080A9FEDD51AF0EE410AC3
:1022E00005F0D6F827E0B0EE080A9FEDD11AF0EE1F
:1022F000410A05F0CDF81EE0B0EE080A9FEDCC1AB9
:10230000F0EE410A05F0C4F815E000BF000000003F
:102310009A99993F6666A63FCDCCCC3F666606404B
:102320009A99D93FB0EE080A9FEDC11AF0EE410A22
:1023300005F0AEF8FFE740F24020C2F2000001696C
:1023400091ED030A9FEDBB1A30EE010A189009F0D7
:102350007DFEB2EE041A20EE010A189800F5A27074
:10236000DFEDB30A04F05AFC189880ED080A2BE060
:1023700040F24020C2F20000007D042823D1FFE794
:1023800041F2A440C2F2000090ED000A40F27C50FD
:10239000C2F200009FEDA61AF0EE410A8DED171A69
:1023A000DDED171A9DED172ADDED172A9DED173A81
:1023B00005F014F8B6EE000ADDED170A9DED171AC8
:1023C00005F066F8FFE7FFE7FFE740F24020C2F2C2
:1023D0000000016991ED030A9FED971A31EE400A62
:1023E00040F27C51C2F2000191ED001A30EE010A78
:1023F00040F68831C2F2000181ED000A40F21B6212
:10240000C2F20002B2F9013000EE103AB8EEC00A92
:102410009FED8A1A80EE010A40F22C13C2F20003EB
:1024200016901846159114928DED131A1293FEF71B
:1024300033FA1498B0F90310494200EE101AB8EEBE
:10244000C00A9DED131A80EE010A40F24011C2F25B
:10245000000108461191FEF71FFA12988068FEF7F6
:10246000A7F841EC100B159890ED001A9FED742A17
:1024700081EE021A11EE100A8DED0E0B8DED0D2A74
:10248000FEF796F841EC100B51EC100B9FED660B2C
:1024900053EC102B0C920B93FDF78EFF41EC100BBD
:1024A0000AF0FAFC53EC102B9DED0E0B51EC100BC7
:1024B000FDF782FF41EC100B119880688DED080B41
:1024C000FEF776F841EC100B159890ED001A9DED93
:1024D0000D2A81EE021A11EE100A8DED060BFEF7A1
:1024E00067F841EC100B51EC100B0C9A0B9BFDF7AD
:1024F00063FF41EC100B0AF0DFFE53EC102B9DED57
:10250000060B51EC100BFDF757FF41EC100B9DED46
:10251000081B53EC112B51EC100BFDF747FF41EC5E
:10252000100B51EC100BFEF756F8169988611298B3
:102530008068FEF73DF841EC100B159890ED001AFD
:102540009DED0D2A81EE021A11EE100A8DED040B9D
:10255000FEF72EF841EC100B51EC100B0C9A0B9B74
:10256000FDF72AFF41EC100B0AF0A6FE53EC102BEE
:102570009DED040B51EC100BFDF71EFF41EC100B11
:10258000119880688DED020BFEF712F841EC100BEC
:10259000159890ED001A9DED0D2A81EE021A11EEAC
:1025A000100A8DED000BFEF703F841EC100B51EC17
:1025B000100B0C9A0B9BFDF7FFFE41EC100B0AF081
:1025C0006BFC53EC102B9DED000B51EC100BFDF749
:1025D000F3FE41EC100B9DED021B51EC110B53EC83
:1025E000102BFDF742FE41EC100B51EC100BFDF7E8
:1025F000F2FF1699C86141F25440C2F2000090ED1A
:10260000000A91ED061A21EE000A81ED060A90ED0E
:10261000000A91ED071A21EE000A81ED070A1EB0AB
:1026200080BD00BF00BF00BFF1D4C853FB210940EB
:102630000000000000001E4300001EC300FEFF4615
:102640000000344340F21B60C2F2000040790006F3
:1026500000281BD5FFE740F2BC10C2F20000B0F921
:102660000400B0F5966F11DDFFE740F2BC10C2F236
:1026700000000121017240F2CC10C2F2000000689B
:1026800040F20861C2F2000108601FE040F2CC1085
:10269000C2F20000006840F20861C2F2000109685D
:1026A000401AFB2808D3FFE740F2BC10C2F200003A
:1026B00000210172417008E040F2BC10C2F200003B
:1026C0000121017200214170FFE7FFE77047000020
:1026D00070B586B0DDF838C0DDF834E00C9C0B9D99
:1026E0000A9E059004910392029300200190FFE757
:1026F000019800210228009108DCFFE70498019965
:10270000405C002818BF01200090FFE70098C00738
:1027100000280BD0FFE704980199405C059A511AF4
:102720008870FFE7019801300190E1E70598D0F843
:102730000310D0F80720D0F80B304FF0020C6CF3E8
:10274000C501C0F80720C0F80310C0F80B3003988B
:102750000599D1F80320D1F80730D1F80BC060F308
:102760000202C1F80730C1F80320C1F80BC002987B
:102770000599D1F80320D1F80730D1F80BC000F04B
:102780000F0022F4707242EA8010C1F80730C1F8DD
:102790000300C1F80BC00A980599D1F80320D1F8BD
:1027A0000730D1F80BC000F00F0022F4705242EA5B
:1027B0008020C1F80730C1F80300C1F80BC00B98A6
:1027C0000599D1F80320D1F80730D1F80BC060F398
:1027D0000903C1F80320C1F80730C1F80BC00C98F9
:1027E0000599D1F80320D1F80730D1F80BC06FF369
:1027F000DF206FF3942343EA8020C1F80320C1F85F
:102800000700C1F80BC00D980599D1F80320D1F845
:102810000730D1F80BC06FF35F5343EA4050C1F863
:102820000320C1F80700C1F80BC00E980599D1F834
:102830000320D1F80730D1F80BC060F3090CC1F8C0
:102840000730C1F80320C1F80BC006B070BD00000E
:1028500080B540F6EC40C2F2000001F043FB80BDC1
:1028600080B540F62C40C2F2000001F03BFB80BD79
:1028700080B540F64C50C2F2000001F033FB80BD41
:1028800080B540F68C40C2F2000001F02BFB80BD09
:1028900082B001900198007810384AF6AB21CAF650
:1028A000AA21A0FB01010909009100994EF25002F2
:1028B000C0F60002515C019AD1650099042907D342
:1028C000FFE701980168042262F30901816506E0CF
:1028D0000198016840F2FF3291438165FFE701985A
:1028E000806D02B07047000086B0059000208DF822
:1028F00013000598806A039005988069002823D109
:10290000FFE70398032802901CD80299DFE801F042
:10291000020E0219059890F82F00C007002804D075
:10292000FFE701208DF81300FFE70CE00598C06A6F
:10293000B0F1C07F04D1FFE701208DF81300FFE75D
:1029400001E000E0FFE747E005988069B0F5005F2F
:1029500026D1FFE70398032801901FD80199DFE8EB
:1029600001F00206021201208DF8130017E005980D
:1029700090F82F00C007002804D0FFE701208DF851
:102980001300FFE70BE00598C06AB0F1C07F04D1E7
:10299000FFE701208DF81300FFE700E0FFE71AE0F2
:1029A00003980328009004D3FFE70098032804D07D
:1029B0000FE001208DF813000CE0059890F82F002F
:1029C000C007002804D0FFE701208DF81300FFE7BF
:1029D00000E0FFE7FFE7FFE79DF8130006B0704750
:1029E0007047000080B584B01346039002918DF8C3
:1029F000072000208DF806000398009303F018FDCF
:102A0000002801D0FFE737E00398D0F81002B0F5B6
:102A1000FD7F01D9FFE72FE0FFE79DF806009DF855
:102A20000710884228DAFFE70398D0F80C1201312A
:102A30004CF21162C1F6B07251FB02F2931103EB3A
:102A4000D27240F2052302FB1311C0F80C12029857
:102A50009DF80610405C0399D1F80C228854039825
:102A6000D0F810120131C0F81012FFE79DF80600EF
:102A700001308DF80600D0E704B080BD81B040F28F
:102A80002C50C2F2000000210160016241604162ED
:102A90008DF80310FFE79DF80300042816DCFFE71C
:102AA0009DF8030040F22C51C2F2000101EB8000BE
:102AB0000022C2609DF8030001EB8000C262FFE7C4
:102AC0009DF8030001308DF80300E4E740F22C503C
:102AD000C2F20000002181608162152180F840105F
:102AE00001B0704780B582B00190FFF7C7FFFFE7E4
:102AF000FDF78AFFFDF7B6FF05F04EF8FDF7EAFF98
:102B000040F22C50C2F2000090F840000146152817
:102B100000913ED80099DFE801F00B11173C3C3CD6
:102B20003C3C3C3C3C3C3C3C3C3C1D22272C313654
:102B30004FF47F00012100F031F82EE04FF47F00C8
:102B4000022100F02BF828E04FF47F00032100F071
:102B500025F822E0FF20012100F020F81DE0FF20F1
:102B6000022100F01BF818E0FF20032100F016F806
:102B700013E0FF20042100F011F80EE0FF200521F2
:102B800000F00CF809E04FF47F40012100F006F856
:102B900003E0042008F0D2F8FFE7A9E780B586B08B
:102BA0000590049104984FF4FA71B1FBF0F0039092
:102BB000059840F07F40029000208DF80700FFE765
:102BC0009DF807000499884215D2FFE7029807F0A4
:102BD000E7FD039808F0B2F800210090084607F0DE
:102BE000DFFD039808F0AAF8FFE79DF80700013021
:102BF0008DF80700E4E7002007F0D2FD4FF47A706B
:102C000008F09CF806B080BD81B0EFF3108072B67A
:102C10000090FFE7FEE70000F0B587B0DDF844C0A4
:102C2000DDF840E00F9C0E9D0D9E0C9F06900591D7
:102C3000049203938DED020A00200190FFE70198B2
:102C400000210228009108DCFFE705980199405C0B
:102C5000002818BF01200090FFE70098C007002857
:102C60000BD0FFE705980199405C069A511A8870CD
:102C7000FFE7019801300190E1E70698D0F80310D2
:102C8000D0F80720052363F3C501C0F80720C0F87A
:102C9000031006980499D0F80320D0F8073061F3A8
:102CA0000202C0F80730C0F8032006980399D0F854
:102CB0000320D0F8073001F00F0122F4707242EACD
:102CC0008111C0F80730C0F8031006980C99D0F8AD
:102CD0000320D0F8073001F00F0122F4705242EACD
:102CE0008121C0F80730C0F8031006980F99D0F87A
:102CF0000320D0F8073061F30903C0F80320C0F8BF
:102D0000073006981099D0F80320D0F807306FF3F9
:102D1000DF216FF3942343EA8121C0F80320C0F838
:102D2000071006981199D0F80320D0F807306FF3F8
:102D30005F5343EA4151C0F80320C0F807100698DA
:102D40000D99D0F80320D0F807306FF35F216FF3AF
:102D5000963242EA8131C0F80730C0F80310069875
:102D60000E99D0F80320D0F807306FF3DF5242EA13
:102D7000C151C0F80730C0F803109DED020ABDEE46
:102D8000C00A10EE100A0699C1F80B0007B0F0BD9A
:102D900081B001468DF803009DF8030000EB800030
:102DA00040F2F032C2F2000202EB800001B0704744
:102DB00040F6C020C2F200007047000084B0134605
:102DC00002900191ADF802200298002805D1FFE79A
:102DD0004FF6FF70ADF80E0022E0FFE70198411EAC
:102DE0000191002817D0FFE70298411C029100785A
:102DF0008DF80100BDF802009DF801104140C9B2F4
:102E00004EF29C12C0F6000232F8111081EA102036
:102E1000ADF80200E2E7BDF80200ADF80E00FFE7F2
:102E2000BDF80E0004B0704783B0134602900191C4
:102E30008DF80320FFE70198411E0191002813D06F
:102E4000FFE79DF8030002994A1C02920978484066
:102E50008DF802009DF802004DF65061C0F60001A9
:102E6000085C8DF80300E6E79DF8030003B07047A7
:102E700084B002900191029890F820008DF8030030
:102E80009DF80300012805D0FFE79DF80300022804
:102E90000AD1FFE70198029909684A69104348611D
:102EA00000208DF80F0008E00298416A41F480216B
:102EB000416201208DF80F00FFE79DF80F0004B07C
:102EC0007047000088B0069005910492039306981D
:102ED00090F820008DF80700069800688068009040
:102EE00005988068002801D1FFE700E0FFE79DF822
:102EF0000700012806D0FFE79DF80700022840F0F0
:102F00008F80FFE79DF80300400700280CD4FFE7FF
:102F10009DF803000007002806D4FFE79DF8030092
:102F2000C006002873D5FFE70098C0F30160029047
:102F30000298032809D3FFE70698416A41F400018B
:102F4000416201208DF81F0073E00298012101FA0F
:102F500000F0039908600598806800280DD1FFE70C
:102F600005980168C06840EA415006990968029ACC
:102F700001EB0211C1F880010EE0059841688268FA
:102F8000C06842EAC101084306990968029A01EB48
:102F90000211C1F88001FFE70598006906990968E8
:102FA000029A01EB0211C1F884010598007D012805
:102FB0000CD1FFE706980068029900EB0110D0F8E9
:102FC000841141F48071C0F88411FFE704984068CF
:102FD00006990968029A01EB0211C1F88C01049864
:102FE000006806990968029A01EB0211C1F888018C
:102FF00006980068029900EB0110D0F8801141F0AA
:103000000101C0F8801100208DF81F0011E0069822
:10301000416A41F40011416201208DF81F0008E06F
:103020000698416A41F48021416201208DF81F0019
:10303000FFE79DF81F0008B07047000086B00490BD
:103040000391049800680190049890F820008DF88E
:1030500003009DF80300012806D0FFE79DF8030058
:10306000022840F0B880FFE746F20040C4F20000BA
:1030700001900198D0F8001241F00101C0F800124F
:103080000198D0F8001221F47C51C0F80012039886
:10309000406A0199D1F8002242EA0020C1F80002FA
:1030A0000398406900F01F00012101FA00F002902E
:1030B00002980199D1F81C2222EA0000C1F81C02F2
:1030C0000398C06900281FD1FFE702980199D1F841
:1030D0000C2222EA0000C1F80C0203988188C26821
:1030E000406941EA0241019A02EBC000C0F8401277
:1030F000039801888268406941EA0241019A02EB23
:10310000C000C0F84412FFE70398C06901281ED12F
:10311000FFE702980199D1F80C221043C1F80C0284
:10312000039881880268406941EA0241019A02EBF2
:10313000C000C0F84012039881898268406941EA62
:103140000241019A02EBC000C0F84412FFE7039865
:103150008069002809D1FFE702980199D1F804227B
:1031600022EA0000C1F8040207E002980199D1F8B0
:1031700004221043C1F80402FFE703980069002805
:1031800009D1FFE702980199D1F8142222EA000040
:10319000C1F8140207E002980199D1F814221043F3
:1031A000C1F81402FFE70398006A012808D1FFE77D
:1031B00002980199D1F81C221043C1F81C02FFE7C4
:1031C0000198D0F8001221F00101C0F8001200208F
:1031D0008DF8170008E00498416A41F480214162AB
:1031E00001208DF81700FFE79DF8170006B0704723
:1031F00081B0009001B0704786B0049003910292B4
:103200000193049890F820008DF803009DF80300C6
:10321000012806D0FFE79DF80300022840F0DC807B
:10322000FFE70398002811D1FFE704980068C06801
:103230008007002809D1FFE70498416A41F4001192
:10324000416201208DF81700CFE010E0049800687B
:1032500000698007002809D1FFE70498416A41F41A
:103260000011416201208DF81700BEE0FFE70498CD
:103270000068039900EB0110D0F8B00100F00400E1
:10328000029988600298806800280BD1FFE70498B3
:103290000068039900EB0110D0F8B001400D0299CD
:1032A00008600AE004980068039900EB0110D0F868
:1032B000B001C00802994860FFE7049800680399CC
:1032C00000EB0110D0F8B00100F002000299C860D4
:1032D00004980068039900EB0110D0F8B40100F0E5
:1032E0000F000299086104980068039900EB01102F
:1032F000D0F8B40180B2000A02998861049800688D
:10330000039900EB0110D0F8B401000C0299486158
:1033100004980068039900EB0110D0F8B8010199F6
:10332000087004980068039900EB0110D0F8B80108
:10333000000A0199487004980068039900EB011095
:10334000D0F8B801000C01998870049800680399BE
:1033500000EB0110D0F8B801000E0199C870049874
:103360000068039900EB0110D0F8BC0101990871C5
:1033700004980068039900EB0110D0F8BC01000A22
:103380000199487104980068039900EB0110D0F886
:10339000BC01000C0199887104980068039900EB46
:1033A0000110D0F8BC01000E0199C87103980028E3
:1033B00007D1FFE704980068C16841F02001C160AF
:1033C00006E004980068016941F020010161FFE70F
:1033D00000208DF8170008E00498416A41F480212C
:1033E000416201208DF81700FFE79DF8170006B035
:1033F0007047000080B58AB00990002008900998B5
:10340000006840690790099800684068069009982C
:1034100000688068059009980068C0680490099861
:1034200000680069039009980068806902909DF81F
:103430001C00C007002800F09780FFE79DF81400EB
:10344000C00700282BD0FFE70998006801218160A0
:103450009DF814008007002804D5FFE7099800F0C4
:1034600029FD1BE09DF814004007002805D5FFE763
:10347000089840F4006008900FE09DF814000007E1
:10348000002805D5FFE7089840F48050089003E035
:10349000099800F00BFDFFE7FFE7FFE7FFE79DF866
:1034A0001500C00700282CD0FFE7099800684FF4EA
:1034B000807181609DF815008007002804D5FFE722
:1034C000099800F0FFFC1BE09DF81500400700285C
:1034D00005D5FFE7089840F4005008900FE09DF8EC
:1034E00015000007002805D5FFE7089840F4804044
:1034F000089003E0099800F0E1FCFFE7FFE7FFE731
:10350000FFE79DF81600C00700282CD0FFE70998B8
:1035100000684FF4803181609DF816008007002814
:1035200004D5FFE7099800F0D5FC1BE09DF81600D4
:103530004007002805D5FFE7089840F400400890B0
:103540000FE09DF816000007002805D5FFE7089852
:1035500040F48030089003E0099800F0B7FCFFE7E2
:10356000FFE7FFE7FFE7FFE79DF81C0000070028E3
:1035700010D5FFE79DF81000C006002809D5FFE729
:10358000089840F400700890099800681021C16004
:10359000FFE7FFE79DF81C00400700280FD5FFE775
:1035A0009DF810000007002808D5FFE7099800687B
:1035B0000821C160099800F0D7FAFFE7FFE79DF8FE
:1035C0001C00800700280CD5FFE709980068C06838
:1035D0008007002804D0FFE7099800F0C9FAFFE748
:1035E000FFE79DF81C004006002810D5FFE79DF876
:1035F0000C00C006002809D5FFE7089840F4806059
:1036000008900998006810210161FFE7FFE79DF825
:103610001C00800600280FD5FFE79DF80C0000076E
:10362000002808D5FFE7099800680821016109987A
:1036300000F0EAFBFFE7FFE79DF81C00C00600284A
:103640000CD5FFE70998006800698007002804D0BE
:10365000FFE7099800F0DCFBFFE7FFE79DF81E009D
:10366000800700280FD5FFE79DF81800C006002846
:1036700008D5FFE70998006810214160099800F01B
:10368000CBFBFFE7FFE79DF81E00C00700280FD027
:10369000FFE79DF818000007002808D5FFE7099804
:1036A000006808214160099800F018FCFFE7FFE777
:1036B0009DF81D000006002840F18F80FFE79DF86F
:1036C00018004007002840F18380FFE79DF81D00A7
:1036D000C00700280BD0FFE79DF80800C0070028AE
:1036E00005D0FFE7089840F001000890FFE79DF83B
:1036F0001D00800700280BD5FFE79DF80800800714
:10370000002805D5FFE7089840F002000890FFE781
:103710009DF81D00400700280BD5FFE79DF8080025
:103720004007002805D5FFE7089840F004000890FE
:10373000FFE79DF81D000007002848D5FFE79DF82A
:10374000080010F0700F42D0FFE7029800F0700000
:1037500001461028019114D0FFE70198202815D0C8
:10376000FFE70198302816D0FFE70198402817D0CE
:10377000FFE70198502818D0FFE70198602819D07A
:103780001DE0089840F00800089019E0089840F003
:103790001000089014E0089840F0200008900FE016
:1037A000089840F0400008900AE0089840F0800037
:1037B000089005E0089840F48070089000E0FFE76A
:1037C00009980068816921F070018161FFE7FFE7D6
:1037D0000998006804214160FFE70898002809D093
:1037E000FFE7089809994A6A104348620998FFF769
:1037F000FFFCFFE70AB080BD80B584B0029002985C
:10380000002804D1FFE701208DF80F00E2E00298C4
:1038100090F82000002804D1FFE7029800F0DEF8BD
:10382000FFE702980068016841F00101016000F0C3
:1038300099FF0190FFE7029800684068C0070028E0
:1038400015D1FFE700F08EFF0199401A0B280DD328
:10385000FFE70298416A41F4003141620298052174
:1038600080F8201001208DF80F00B3E0E3E7029804
:103870000068016821F00201016000F073FF01900F
:10388000FFE70298006840688007002815D5FFE729
:1038900000F068FF0199401A0B280DD3FFE702984A
:1038A000416A41F4003141620298052180F82010FC
:1038B00001208DF80F008DE0E3E70298007E0128DB
:1038C00007D1FFE702980068016841F080010160BC
:1038D00006E002980068016821F080010160FFE7BE
:1038E0000298407E012807D1FFE70298006801682E
:1038F00041F04001016006E002980068016821F093
:1039000040010160FFE70298807E012807D1FFE7B0
:1039100002980068016841F02001016006E0029809
:103920000068016821F020010160FFE70298C07E75
:10393000012807D1FFE702980068016821F0100113
:10394000016006E002980068016841F01001016022
:10395000FFE70298007F012807D1FFE7029800687F
:10396000016841F00801016006E002980068016802
:1039700021F008010160FFE70298407F012807D18C
:10398000FFE702980068016841F00401016006E069
:1039900002980068016821F004010160FFE70298C5
:1039A000016842688368D0F80CC043EA0C03D0F881
:1039B00010C043EA0C0340691843013A1043C86140
:1039C0000298002141620298012280F820208DF89F
:1039D0000F10FFE79DF80F0004B080BD80B590B0D8
:1039E0000F9000200E900D900C900B900A900F9865
:1039F000006846F20041C4F2000188424AD1FFE764
:103A000040F2A850C2F20000016801310160006874
:103A1000012812D1FFE7FFE70020099043F640009C
:103A2000C4F20200016841F000710160006800F01A
:103A3000007009900998FFE7FFE7FFE70020089072
:103A400043F63000C4F20200016841F00801016051
:103A5000006800F0080008900898FFE703200A902B
:103A600002210B9100210C910D9009200E9040F63F
:103A70000040C4F202000AAA0491114600F090FC32
:103A8000142005210390049A00F036FF039800F0FB
:103A900027FF66E00F98006846F60001C4F20001B7
:103AA00088425DD1FFE7FFE70020079043F6400022
:103AB000C4F20200016841F080610160006800F01A
:103AC000806007900798FFE740F2A850C2F200001C
:103AD0000168013101600068012812D1FFE7FFE7AA
:103AE0000020069043F64000C4F20200016841F055
:103AF00000710160006800F0007006900698FFE712
:103B0000FFE7FFE70020059043F63000C4F2020013
:103B1000016841F002010160006800F002000590B8
:103B20000598FFE760200A9002200B9000200C907F
:103B300003210D9109210E9140F20041C4F20201CE
:103B40000AAA02900846114600F02AFC40200521EE
:103B50000190029A00F0D0FE019800F0C1FEFFE74C
:103B6000FFE710B080BD000081B0009001B0704749
:103B700080B58CB00B900B98002104AA02ABFFF724
:103B80003BFB0B99096846F20042C4F200029142E5
:103B900040F0A280FFE70498A0F2012104290190DF
:103BA00027D3FFE740F211200199814240F0928033
:103BB000FFE740F22C50C2F20000016801310160C1
:103BC0009DF8080040F2BC11C2F2000108709DF897
:103BD000090048709DF80A009DF80B2042EA002079
:103BE00048809DF80C009DF80D2042EA0020888056
:103BF00071E00498013840F2A451C2F2000108704B
:103C0000087800EB800040F2F032C2F2000202EBD2
:103C1000800332F8200018819DF808009DF80930D3
:103C200043EA00200B7803EB830322F823009DF87E
:103C30000A009DF80B3043EA00200B7803EB830366
:103C400002EB830358809DF80C009DF80D3043EA89
:103C500000200B7803EB830302EB830398809DF82D
:103C60000E000B7803EB830302EB83039871087853
:103C700000EB800002EB800332F8200000EE100A17
:103C8000B8EEC00A9FED5D1A80EE010A9FED5C1A46
:103C900020EE010A9FED5B2A30EE020A83ED030A53
:103CA000087800EB800002EB8000B0F9022000EE03
:103CB000102AB8EEC00A20EE010A80ED040A087846
:103CC00040F22C51C2F2000101EB8000C1680131C9
:103CD000C16000E0FFE78FE00B98006846F6000146
:103CE000C4F20001884240F08680FFE70498B0F5F6
:103CF000837F00905AD0FFE740F20710009981427D
:103D000063D0FFE70098B0F5887F5FD0FFE740F20F
:103D10001110009981426BD0FFE740F20520009915
:103D2000814266D1FFE740F6C020C2F20000018860
:103D300001819DF808109DF8092042EA01210180C7
:103D40009DF80A109DF80B2042EA012141809DF860
:103D50000C109DF80D2042EA012181809DF80E1083
:103D60008171018800EE101AB8EEC00A9FED231A87
:103D700080EE010A9FED221A20EE010A9FED212A12
:103D800030EE020A80ED030AB0F9021000EE101ABC
:103D9000B8EEC00A20EE010A80ED040A40F22C5071
:103DA000C2F20000C1690131C16123E040F22C5030
:103DB000C2F2000041680131416040F2EF00C2F2FE
:103DC0000000BDF80810018014E013E040F22C5010
:103DD000C2F2000041680131416040F21B60C2F252
:103DE00000000299DDF80B20C0F80320016001E01B
:103DF00000E0FFE7FFE7FFE70CB080BD00F8FF45FC
:103E00000000B443000034C381B0009001B070479B
:103E100081B0009001B0704781B0009001B0704750
:103E200080B584B00290029890F82000012830D12B
:103E3000FFE70298022180F82010029800680168CC
:103E400021F00101016000F08DFC0190FFE7029874
:103E500000684068C007002815D0FFE700F082FC2A
:103E60000199401A0B280DD3FFE70298416A41F4EB
:103E7000003141620298052180F8201001208DF860
:103E80000F000FE0E3E70298002141628DF80F1068
:103E900008E00298416A41F40021416201208DF856
:103EA0000F00FFE79DF80F0004B080BD81B00090C7
:103EB00001B0704781B0009001B0704781B00090B0
:103EC00001B0704781B0009001B0704781B00090A0
:103ED00001B0704781B0009001B0704781B0009090
:103EE00001B0704780B586B005900020039040F285
:103EF0001400C2F20000006848F2B511C1F64E315C
:103F0000A0FB0101890A02910599896D019101992E
:103F1000096804910499059AD26DD14009070029D6
:103F20001BD5FFE70598006800684007002813D5F7
:103F3000FFE705980068016821F004010160059819
:103F4000C06D082101FA00F0019988600598416D63
:103F500041F001014165FFE7FFE704980599C96D4C
:103F6000C840C007002815D0FFE7059800684069E1
:103F7000000600280DD5FFE70598C06D012101FA64
:103F800000F0019988600598416D41F0020141659A
:103F9000FFE7FFE704980599C96DC840400700286E
:103FA00015D5FFE7059800680068800700280DD543
:103FB000FFE70598C06D042101FA00F001998860BF
:103FC0000598416D41F004014165FFE7FFE7049862
:103FD0000599C96DC840C00600284BD5FFE7059874
:103FE000006800680007002843D5FFE70598C06D0A
:103FF000102101FA00F001998860059800680068B6
:10400000400300281CD5FFE70598006800680003FE
:1040100000280AD4FFE70598006C002804D0FFE7C9
:104020000598016C8847FFE709E00598806C002837
:1040300004D0FFE70598816C8847FFE7FFE717E0AA
:10404000059800680068C005002807D4FFE70598B8
:104050000068016821F008010160FFE70598006C25
:10406000002804D0FFE70598016C8847FFE7FFE7C9
:10407000FFE7FFE704980599C96DC840800600284E
:1040800040F19580FFE7059800680068C0060028A9
:1040900040F18C80FFE70598C06D202101FA00F007
:1040A00001998860059890F83500052838D1FFE718
:1040B00005980068016821F0160101600598006804
:1040C000416921F0800141610598006C002805D10B
:1040D000FFE70598806C002807D0FFE70598006887
:1040E000016821F008010160FFE70598C06D3F21DC
:1040F00001FA00F0019988600598012180F83510D7
:10410000FFE70598002180F83410FFE70598006D5F
:10411000002804D0FFE70598016D8847FFE781E09C
:10412000059800680068400300281CD5FFE7059843
:1041300000680068000300280AD4FFE70598406C77
:10414000002804D0FFE70598416C8847FFE709E0A5
:104150000598C06B002804D0FFE70598C16B88471D
:10416000FFE7FFE721E0059800680068C005002828
:1041700011D4FFE705980068016821F01001016083
:104180000598012180F83510FFE70598002180F897
:104190003410FFE7FFE70598C06B002804D0FFE765
:1041A0000598C16B8847FFE7FFE7FFE7FFE7059842
:1041B000406D002836D0FFE70598406DC007002805
:1041C00026D0FFE70598052180F83510059800688E
:1041D000016821F001010160FFE7039801300390BD
:1041E0000299884201D9FFE707E0FFE705980068D8
:1041F0000068C0070028F0D1FFE70598012180F88A
:104200003510FFE70598002180F83410FFE7FFE73D
:104210000598C06C002804D0FFE70598C16C88475A
:10422000FFE7FFE706B080BD80B586B004900020B0
:10423000039000F097FA02900498002804D1FFE759
:1042400001208DF81700A7E00498406A002801D0EB
:10425000FFE7FFE70498022180F83510FFE7049894
:10426000002180F83410FFE704980068016821F00D
:1042700001010160FFE7049800680068C00700289A
:1042800012D0FFE700F06EFA0299401A06280AD30E
:10429000FFE70498202141650498032180F8351038
:1042A0008DF8171078E0E6E704980068006803903E
:1042B000039848F23F01CFF21001084003900498A0
:1042C00041688268C368D0F810C01143194341EABD
:1042D0000C014269114382691143C2691143006AAA
:1042E00008430399084303900498406A042808D1BE
:1042F000FFE70498C16A006B0843039908430390E1
:10430000FFE7039804990968086004980068406909
:104310000390039820F0070003900498406A0399E3
:10432000084303900498406A04281CD1FFE70498CE
:10433000806A0399084303900498C06A002811D04A
:10434000FFE70498FEF7D0FA00280AD0FFE70498A8
:10435000402141650498012180F835108DF817102F
:104360001AE0FFE7FFE70398049909684861049899
:10437000FEF78EFA01900498C06D3F2101FA00F01B
:10438000019988600498002141650498012280F811
:1043900035208DF81710FFE79DF8170006B080BD97
:1043A0008EB00D900C9100200A90099008900B900F
:1043B000FFE70B980F2800F2D281FFE70B9801214D
:1043C00001FA00F00A900C9800680A9908400990D8
:1043D00009980A99884240F0BD81FFE70C9840682F
:1043E00000F00300012807D0FFE70C98406800F0B8
:1043F000030002282FD1FFE70D98806808900B98E2
:104400004000032101FA00F0089921EA0000089019
:104410000C98C0680B994900884008990843089097
:1044200008980D9988600D98406808900B980121B4
:1044300001FA00F0089921EA000008900C98406801
:10444000C0F300100B998840089908430890089819
:104450000D994860FFE70C98406800F003000328BE
:1044600018D0FFE70D98C06808900B984000032112
:1044700001FA00F0089921EA000008900C98806881
:104480000B994900884008990843089008980D99AD
:10449000C860FFE70C98406800F00300022826D1AE
:1044A000FFE70D980B996FF0030202EA51010844EF
:1044B000006A08900B9800F0070080000F2101FAB5
:1044C00000F0089921EA000008900C9800690B9907
:1044D00001F007018900884008990843089008986E
:1044E0000D990B9B02EA530211440862FFE70D98F5
:1044F000006808900B984000032101FA00F0089929
:1045000021EA000008900C98406800F003000B9925
:104510004900884008990843089008980D99086058
:104520000C9880798007002800F01381FFE7FFE7EF
:104530000020079043F64400C4F20200016841F4F1
:1045400080410160006800F4804007900798FFE711
:104550000B9820F0030043F60801C4F20101405813
:1045600008900B9800F0030080000F2101FA00F082
:10457000089921EA000008900D980021C4F2020178
:10458000884203D1FFE7002006905EE00D9840F2DC
:104590000041C4F20201884203D1FFE701200590E7
:1045A00050E00D9840F60001C4F20201884203D1A8
:1045B000FFE70220049042E00D9840F60041C4F26B
:1045C0000201884203D1FFE70320039034E00D98F5
:1045D00041F20001C4F20201884203D1FFE7042046
:1045E000029026E00D9841F20041C4F20201884297
:1045F00003D1FFE70520019018E00D9841F6000176
:10460000C4F20201884203D1FFE7062000900AE0CD
:104610000D9841F60041C4F202010822884208BF09
:1046200007220092FFE700980190FFE701980290AF
:10463000FFE702980390FFE703980490FFE70498D0
:104640000590FFE705980690FFE70698C0B20B9922
:1046500001F00301890088400899084308900898F0
:104660000B9921F0030143F60802C4F201028850BD
:1046700043F60840C4F201000068089009980899C0
:1046800021EA000008900C988079C006002805D522
:10469000FFE70998089908430890FFE7089843F650
:1046A0000841C4F20101086043F60C40C4F2010065
:1046B000006808900998089921EA000008900C9871
:1046C00080798006002805D5FFE7099808990843F6
:1046D0000890FFE7089843F60C41C4F20101086016
:1046E00043F60440C4F20100006808900998089954
:1046F00021EA000008900C9880798007002805D5F1
:10470000FFE70998089908430890FFE7089843F6DF
:104710000441C4F20101086043F60040C4F2010004
:10472000006808900998089921EA000008900C9800
:104730008079C007002805D0FFE709980899084349
:104740000890FFE7089843F60041C4F201010860B1
:10475000FFE7FFE7FFE70B9801300B9029E60EB06B
:104760007047000045F2B440C2F200000068704794
:1047700040F25C00C2F20000007845F2B441C2F29F
:1047800000010A68104408607047000080B582B0DC
:1047900043F60040C4F20200016841F40071016078
:1047A000016841F480610160016841F48071016039
:1047B000032000F0C1F80F2000F006F8019000F08F
:1047C00063F8002002B080BD80B58EB00C90002050
:1047D000069005900C99372202901046029B019298
:1047E0001A4600F089F8019800F07AF8FFE70020F7
:1047F000039043F64000C4F20200016841F020013A
:104800000160006800F0200003900398FFE707A80C
:1048100004A900F0CBF900F0F9F9400006900698E1
:104820004DF68361C4F21B31A0FB01014FF0FF3252
:1048300002EB9141059140F6F451C2F2000141F2C0
:104840000042C4F200020A6040F2E732CA60059AF0
:104850004A6000220A618A600090084600F06EFEFD
:10486000002809D1FFE740F6F450C2F2000000F042
:1048700033FF8DF8370003E001208DF83700FFE7A4
:104880009DF837000EB080BD80B582B0FFE70020F4
:10489000019043F64400C4F20200016841F48041F3
:1048A0000160006800F4804001900198FFE7FFE795
:1048B0000020009043F64000C4F20200016841F07D
:1048C00080510160006800F0805000900098FFE780
:1048D0006FF001000F21002200F00EF802B080BD41
:1048E00080B582B001468DF807009DF90700009160
:1048F00005F0F4FE02B080BD80B588B003468DF8A7
:104900001F000691059200200490039305F000FF1C
:1049100004909DF91F000499069A059B0290084691
:1049200011461A4602F042F902990190084601998F
:1049300005F0F6FE08B080BD80B582B00190019808
:1049400005F010FF02B080BD80B584B002900191E7
:104950000298002804D1FFE701208DF80F0021E123
:10496000019843F60041C4F20201096801F0070111
:10497000884212D9FFE7019843F60041C4F20201D0
:104980000870086800F007000199884204D0FFE72A
:1049900001208DF80F0005E1FFE7029800788007FD
:1049A00000282AD5FFE7029800784007002809D59B
:1049B000FFE743F60800C4F20200016841F4E05149
:1049C0000160FFE7029800780007002809D5FFE79B
:1049D00043F60800C4F20200016841F4604101603E
:1049E000FFE743F60800C4F20200016821F0F0017D
:1049F000029A926811430160FFE702980078C007AD
:104A000000286ED0FFE702984068012811D1FFE727
:104A100043F60000C4F20200006800F400300021F8
:104A2000B1EB504F04D1FFE701208DF80F00B9E042
:104A30002CE002984068022805D0FFE70298406801
:104A4000032811D1FFE743F60000C4F2020000681A
:104A500000F000700021B1EB506F04D1FFE701209E
:104A60008DF80F009EE010E043F60000C4F2020053
:104A7000006800F002000021B1EB500F04D1FFE705
:104A800001208DF80F008DE0FFE7FFE743F60800F7
:104A9000C4F20200016821F00301029A5268114336
:104AA0000160FFF75FFE0090FFE743F60800C4F2E5
:104AB0000200006800F00C0002994968B0EB810F19
:104AC0000ED0FFE7FFF74EFE0099401A41F2893100
:104AD000884204D3FFE703208DF80F0062E0E4E78B
:104AE000FFE7019843F60041C4F20201096801F0B2
:104AF0000701884212D2FFE7019843F60041C4F251
:104B000002010870086800F007000199884204D08B
:104B1000FFE701208DF80F0044E0FFE702980078DE
:104B2000400700280CD5FFE743F60800C4F2020056
:104B3000016821F4E051029AD26811430160FFE755
:104B400002980078000700280DD5FFE743F608001B
:104B5000C4F20200016821F46041029A126941EA3C
:104B6000C2010160FFE700F075F843F60801C4F2E6
:104B700002010968C9B209094DF63862C0F600029F
:104B8000515CC84040F21401C2F20001086040F2DA
:104B90006000C2F200000068FFF716FE00218DF8E9
:104BA0000F10FFE79DF80F0004B080BD82B00190A8
:104BB000009101980F21016043F60800C4F2020041
:104BC000016801F00301019A5160016801F0F001F0
:104BD000019A9160016801F4E051019AD160006886
:104BE00000F46040C0080199086143F60040C4F237
:104BF0000200006800F007000099086002B07047EA
:104C000040F21400C2F200000068704780B5FFF760
:104C1000F7FF43F60801C4F202010968C1F38221DB
:104C20004DF64862C0F60002515CC84080BD0000ED
:104C300080B5FFF7E5FF43F60801C4F202010968F9
:104C400089B2490B4DF64862C0F60002515CC8407B
:104C500080BD000080B586B00020059004900390D0
:104C6000029043F60800C4F20200006800F00C0055
:104C700001460028019108D0FFE7019804280AD0D6
:104C8000FFE7019808280CD04FE042F20040C0F244
:104C9000F40002904FE041F60030C0F2B7000290FD
:104CA00049E043F60400C4F20200016801F03F014C
:104CB000059100684002002813D5FFE743F6040081
:104CC000C4F202000068C0F3881041F60031C0F25F
:104CD000B701A0FB0101059A0023FBF771FA0490CC
:104CE00012E043F60400C4F202000068C0F388102A
:104CF00042F20041C0F2F401A0FB0101059A002339
:104D0000FBF75EFA0490FFE743F60400C4F20200EA
:104D1000006800F44030022101EBD0300390049889
:104D20000399B0FBF1F0029005E042F20040C0F2BE
:104D3000F4000290FFE7029806B080BD80B586B00F
:104D400004900498002804D1FFE701208DF8170093
:104D500055E304980078C007002800F0A780FFE71B
:104D600043F60800C4F20200006800F00C000428BA
:104D700013D0FFE743F60800C4F20200006800F019
:104D80000C0008281FD1FFE743F60400C4F202001C
:104D900000684002002816D5FFE743F60000C4F281
:104DA0000200006800F400300021B1EB504F09D040
:104DB000FFE704984068002804D1FFE701208DF840
:104DC00017001CE371E0FFE704984068B0F5803FEE
:104DD00009D1FFE743F60000C4F20200016841F484
:104DE0008031016020E004984068B0F5A02F0DD11B
:104DF000FFE743F60000C4F20200016841F480219D
:104E00000160016841F4803101600CE043F600006C
:104E1000C4F20200016821F480310160016821F4CC
:104E200080210160FFE7FFE7FFE704984068002862
:104E30001DD0FFE7FFF796FC0390FFE743F6000065
:104E4000C4F20200006800F400300021B1EB504FC2
:104E50000CD1FFE7FFF786FC0399401A652804D3BD
:104E6000FFE703208DF81700C9E2E7E71CE0FFF732
:104E700079FC0390FFE743F60000C4F202000068EB
:104E800000F400300021B1EB504F0CD0FFE7FFF7EA
:104E900069FC0399401A652804D3FFE703208DF8C5
:104EA0001700ACE2E7E7FFE7FFE7FFE704980078C9
:104EB0008007002840F19780FFE743F60800C4F21E
:104EC0000200006810F00C0F13D0FFE743F6080053
:104ED000C4F20200006800F00C0008282CD1FFE7A3
:104EE00043F60400C4F2020000684002002823D404
:104EF000FFE743F60000C4F20200006800F0020081
:104F00000021B1EB500F09D0FFE70498C0680128D9
:104F100004D0FFE701208DF8170070E243F600008F
:104F2000C4F20200016821F0F801049A126941EA12
:104F3000C2010160FFE755E00498C06800282ED048
:104F4000FFE70020C4F2472001210160FFF70AFCBF
:104F50000390FFE743F60000C4F20200006800F08F
:104F600002000021B1EB500F0CD1FFE7FFF7FAFB75
:104F70000399401A032804D3FFE703208DF8170094
:104F80003DE2E7E743F60000C4F20200016821F0C9
:104F9000F801049A126941EAC201016021E000208F
:104FA000C4F2472000210160FFF7DCFB0390FFE71C
:104FB00043F60000C4F20200006800F00200002185
:104FC000B1EB500F0CD0FFE7FFF7CCFB0399401A71
:104FD000032804D3FFE703208DF817000FE2E7E76B
:104FE000FFE7FFE7FFE704980078000700284CD5AB
:104FF000FFE704984069002823D0FFE740F680606F
:10500000C4F2472001210160FFF7ACFB0390FFE7EA
:1050100043F67400C4F20200006800F002000021B0
:10502000B1EB500F0CD1FFE7FFF79CFB0399401A3F
:10503000032804D3FFE703208DF81700DFE1E7E73B
:1050400022E040F68060C4F2472000210160FFF7B3
:1050500089FB0390FFE743F67400C4F20200006886
:1050600000F002000021B1EB500F0CD0FFE7FFF77A
:1050700079FB0399401A032804D3FFE703208DF836
:105080001700BCE1E7E7FFE7FFE704980078400777
:10509000002840F1CF80FFE700208DF8070043F69D
:1050A0004000C4F202000068C000002815D4FFE7E9
:1050B000FFE70020009043F64000C4F202000168C0
:1050C00041F080510160006800F08050009000982D
:1050D000FFE701208DF80700FFE747F20000C4F268
:1050E00000000068C005002822D4FFE747F2000056
:1050F000C4F20000016841F480710160FFF732FBE7
:105100000390FFE747F20000C4F200000068C0050A
:1051100000280CD4FFE7FFF725FB0399401A03286A
:1051200004D3FFE703208DF8170068E1EAE7FFE703
:10513000FFE704988068012809D1FFE743F6700073
:10514000C4F20200016841F0010101601FE004980F
:10515000806805280DD1FFE743F67000C4F2020015
:10516000016841F004010160016841F00101016042
:105170000CE043F67000C4F20200016821F0010166
:105180000160016821F004010160FFE7FFE7FFE72C
:105190000498806800281FD0FFE7FFF7E3FA039028
:1051A000FFE743F67000C4F20200006800F002005E
:1051B0000021B1EB500F0ED1FFE7FFF7D3FA0399AF
:1051C000401A41F28931884204D3FFE703208DF869
:1051D000170014E1E5E71EE0FFF7C4FA0390FFE7CC
:1051E00043F67000C4F20200006800F002000021E3
:1051F000B1EB500F0ED0FFE7FFF7B4FA0399401A56
:1052000041F28931884204D3FFE703208DF817006B
:10521000F5E0E5E7FFE79DF80700012809D1FFE782
:1052200043F64000C4F20200016821F080510160A1
:10523000FFE7FFE704988069002800F0DC80FFE7C3
:1052400043F60800C4F20200006800F00C000828D1
:1052500000F08580FFE70498806902285CD1FFE7B1
:105260006020C4F2472000210160FFF77BFA039021
:10527000FFE743F60000C4F20200006800F000708F
:105280000021B1EB506F0CD0FFE7FFF76BFA0399E9
:10529000401A032804D3FFE703208DF81700AEE07F
:1052A000E7E70498C169026A436AD0F828C011434D
:1052B00041EA83114FEACC324FF6FF739A43A2F5CD
:1052C00080321143C06A41EA006043F60401C4F22F
:1052D000020108606020C4F2472001210160FFF74D
:1052E00041FA0390FFE743F60000C4F202000068B1
:1052F00000F000700021B1EB506F0CD1FFE7FFF719
:1053000031FA0399401A032804D3FFE703208DF8EC
:10531000170074E0E7E721E06020C4F24720002195
:105320000160FFF71FFA0390FFE743F60000C4F2A5
:105330000200006800F000700021B1EB506F0CD04B
:10534000FFE7FFF70FFA0399401A032804D3FFE79A
:1053500003208DF8170052E0E7E7FFE74AE00498E2
:105360008069012804D1FFE701208DF8170046E08D
:1053700043F60400C4F202000068029004988069B9
:10538000012831D0FFE7029800F480000499C96930
:10539000884229D1FFE7029800F03F000499096A8A
:1053A000884221D1FFE7029847F6C071084004996E
:1053B000496AB0EB811F17D1FFE7029800F4403033
:1053C0000499896AC9034FF6FF729143A1F58031B0
:1053D000884209D1FFE7029800F070600499C96A19
:1053E000B0EB016F04D0FFE701208DF8170006E055
:1053F000FFE7FFE7FFE700208DF81700FFE79DF8C4
:10540000170006B080BD000081B0009001B0704769
:1054100081B0009001B0704785B003900291FFE722
:10542000039890F83C00012804D1FFE702208DF892
:1054300013007EE00398012180F83C10FFE7FFE7AE
:105440000398022180F83D1003980068406801909D
:105450000398006880680090019820F07000019027
:10546000029800680199084301900198039909681E
:105470004860039800680021C4F2010188423CD0D2
:10548000FFE703980068B0F1804F36D0FFE703983C
:10549000006840F20041C4F2000188422DD0FFE7CD
:1054A0000398006840F60001C4F20001884224D04D
:1054B000FFE70398006840F60041C4F2000188420B
:1054C0001BD0FFE70398006840F20041C4F20101DD
:1054D000884212D0FFE70398006844F20001C4F24A
:1054E0000101884209D0FFE70398006841F60001F6
:1054F000C4F2000188420ED1FFE7009820F080003E
:105500000090029840680099084300900098039921
:1055100009688860FFE70398012180F83D10FFE7E4
:105520000398002180F83C10FFE700208DF813005D
:10553000FFE79DF8130005B07047000080B584B008
:1055400002900298002804D1FFE701208DF80F0097
:1055500043E0029890F83D00002808D1FFE7029848
:10556000002180F83C10029800F03CF8FFE7029818
:10557000022180F83D10029850F8041B0190084663
:10558000019902F063F80298012180F84610FFE7C4
:105590000298012180F83E10029880F83F1002988E
:1055A00080F84010029880F84110FFE7FFE702986A
:1055B000012180F84210029880F84310029880F888
:1055C0004410029880F84510FFE70298012180F806
:1055D0003D1000208DF80F00FFE79DF80F0004B08C
:1055E00080BD000081B0009001B0704783B0019091
:1055F000019890F83D00012804D0FFE701208DF8C4
:105600000B0064E00198022180F83D1001980068C9
:105610000021C4F2010188423CD0FFE701980068F4
:10562000B0F1804F36D0FFE70198006840F20041AA
:10563000C4F2000188422DD0FFE70198006840F6CF
:105640000001C4F20001884224D0FFE701980068FD
:1056500040F60041C4F2000188421BD0FFE70198E8
:10566000006840F20041C4F20101884212D0FFE715
:105670000198006844F20001C4F20101884209D097
:10568000FFE70198006841F60001C4F2000188427A
:1056900012D1FFE701980068806800F007000090D1
:1056A0000098062807D0FFE701980068016841F0DC
:1056B00001010160FFE706E001980068016841F020
:1056C00001010160FFE700208DF80B00FFE79DF866
:1056D0000B0003B07047000083B00190019890F870
:1056E0003D00012804D0FFE701208DF80B006AE09F
:1056F0000198022180F83D1001980068C16841F0CE
:105700000101C160019800680021C4F201018842D2
:105710003CD0FFE701980068B0F1804F36D0FFE73A
:105720000198006840F20041C4F2000188422DD087
:10573000FFE70198006840F60001C4F200018842CA
:1057400024D0FFE70198006840F60041C4F2000150
:1057500088421BD0FFE70198006840F20041C4F284
:105760000101884212D0FFE70198006844F200016D
:10577000C4F20101884209D0FFE70198006841F6B0
:105780000001C4F20001884212D1FFE701980068CD
:10579000806800F0070000900098062807D0FFE717
:1057A00001980068016841F001010160FFE706E02F
:1057B00001980068016841F001010160FFE70020E5
:1057C0008DF80B00FFE79DF80B0003B07047000059
:1057D00081B0009001B0704780B582B0019001980F
:1057E0000068006900F002000021B1EB500F29D0E1
:1057F000FFE701980068C06800F002000021B1EBEB
:10580000500F1ED0FFE7019800686FF002010161A0
:1058100001980121017701980068806980070028BC
:1058200004D0FFE70198FFF7D3FF06E0019800F0EE
:105830004BF9019800F062FAFFE701980021017727
:10584000FFE7FFE701980068006900F0040000210D
:10585000B1EB900F29D0FFE701980068C06800F015
:1058600004000021B1EB900F1ED0FFE70198006803
:105870006FF004010161019802210177019800682D
:10588000806910F4407F04D0FFE70198FFF7A0FF84
:1058900006E0019800F018F9019800F02FFAFFE7F0
:1058A000019800210177FFE7FFE701980068006990
:1058B00000F008000021B1EBD00F29D0FFE70198DC
:1058C0000068C06800F008000021B1EBD00F1ED0C6
:1058D000FFE7019800686FF0080101610198042159
:1058E000017701980068C0698007002804D0FFE7AD
:1058F0000198FFF76DFF06E0019800F0E5F80198C8
:1059000000F0FCF9FFE7019800210177FFE7FFE7CE
:1059100001980068006900F010000021B1EB101F31
:1059200029D0FFE701980068C06800F0100000214E
:10593000B1EB101F1ED0FFE7019800686FF0100157
:10594000016101980821017701980068C06910F48D
:10595000407F04D0FFE70198FFF73AFF06E0019887
:1059600000F0B2F8019800F0C9F9FFE701980021B2
:105970000177FFE7FFE7019800680069C00700288A
:1059800011D0FFE701980068C068C007002809D05F
:10599000FFE7019800686FF001010161019800F0D4
:1059A00099FAFFE7FFE7019800680069C0B200219B
:1059B000B1EBD01F13D0FFE701980068C068C0B2F8
:1059C0000021B1EBD01F09D0FFE7019800686FF00C
:1059D000800101610198FFF717FDFFE7FFE70198DC
:1059E0000068006900F040000021B1EB901F14D066
:1059F000FFE701980068C06800F040000021B1EBAB
:105A0000901F09D0FFE7019800686FF04001016125
:105A1000019800F083FAFFE7FFE70198006800694A
:105A200000F020000021B1EB501F14D0FFE70198D7
:105A30000068C06800F020000021B1EB501F09D0C1
:105A4000FFE7019800686FF0200101610198FFF7FE
:105A5000DFFCFFE7FFE702B080BD000080B588B043
:105A600007900020069005900490039002900798FC
:105A7000006840F60041C4F20001884222D1FFE7ED
:105A8000FFE70020019043F63000C4F202000168F5
:105A900041F080010160006800F0800001900198F1
:105AA000FFE74FF4E05002900220039000210491A0
:105AB0000591069041F60040C4F2020002A9FEF7EB
:105AC0006FFCFFE708B080BD81B0009001B0704767
:105AD00080B586B004900391029200208DF80700F3
